{
    "contractName": "iBNB_airdrop",
    "abi": [
        {
            "inputs": [
                {
                    "internalType": "address",
                    "name": "_contract",
                    "type": "address"
                }
            ],
            "stateMutability": "nonpayable",
            "type": "constructor"
        },
        {
            "anonymous": false,
            "inputs": [
                {
                    "indexed": true,
                    "internalType": "address",
                    "name": "previousOwner",
                    "type": "address"
                },
                {
                    "indexed": true,
                    "internalType": "address",
                    "name": "newOwner",
                    "type": "address"
                }
            ],
            "name": "OwnershipTransferred",
            "type": "event"
        },
        {
            "inputs": [],
            "name": "owner",
            "outputs": [
                {
                    "internalType": "address",
                    "name": "",
                    "type": "address"
                }
            ],
            "stateMutability": "view",
            "type": "function"
        },
        {
            "inputs": [],
            "name": "renounceOwnership",
            "outputs": [],
            "stateMutability": "nonpayable",
            "type": "function"
        },
        {
            "inputs": [
                {
                    "internalType": "address[]",
                    "name": "_receivers",
                    "type": "address[]"
                },
                {
                    "internalType": "uint256[]",
                    "name": "_balances",
                    "type": "uint256[]"
                }
            ],
            "name": "send_airdrop",
            "outputs": [],
            "stateMutability": "nonpayable",
            "type": "function"
        },
        {
            "inputs": [
                {
                    "internalType": "address",
                    "name": "newOwner",
                    "type": "address"
                }
            ],
            "name": "transferOwnership",
            "outputs": [],
            "stateMutability": "nonpayable",
            "type": "function"
        }
    ],
    "bytecode": "608060405234801561001057600080fd5b506040516106dc3803806106dc83398101604081905261002f916100ac565b60006100396100a8565b600080546001600160a01b0319166001600160a01b0383169081178255604051929350917f8be0079c531659141344cd1fd0a4f28419497f9722a3daafe3b4186f6b6457e0908290a350600180546001600160a01b0319166001600160a01b03929092169190911790556100da565b3390565b6000602082840312156100bd578081fd5b81516001600160a01b03811681146100d3578182fd5b9392505050565b6105f3806100e96000396000f3fe608060405234801561001057600080fd5b506004361061004c5760003560e01c8063715018a6146100515780638da5cb5b1461005b578063932867d814610079578063f2fde38b1461008c575b600080fd5b61005961009f565b005b610063610131565b60405161007091906104ca565b60405180910390f35b610059610087366004610441565b610140565b61005961009a366004610413565b610306565b6100a76103c6565b6001600160a01b03166100b8610131565b6001600160a01b0316146100e75760405162461bcd60e51b81526004016100de90610561565b60405180910390fd5b600080546040516001600160a01b03909116907f8be0079c531659141344cd1fd0a4f28419497f9722a3daafe3b4186f6b6457e0908390a3600080546001600160a01b0319169055565b6000546001600160a01b031690565b6101486103c6565b6001600160a01b0316610159610131565b6001600160a01b03161461017f5760405162461bcd60e51b81526004016100de90610561565b60015460405163095ea7b360e01b81526001600160a01b039091169063095ea7b3906101b390309060001990600401610502565b602060405180830381600087803b1580156101cd57600080fd5b505af11580156101e1573d6000803e3d6000fd5b505050506040513d601f19601f8201168201806040525081019061020591906104aa565b5060005b83811015610302576001546001600160a01b03166323b872dd3387878581811061024357634e487b7160e01b600052603260045260246000fd5b90506020020160208101906102589190610413565b86868681811061027857634e487b7160e01b600052603260045260246000fd5b905060200201356040518463ffffffff1660e01b815260040161029d939291906104de565b602060405180830381600087803b1580156102b757600080fd5b505af11580156102cb573d6000803e3d6000fd5b505050506040513d601f19601f820116820180604052508101906102ef91906104aa565b50806102fa81610596565b915050610209565b5033ff5b61030e6103c6565b6001600160a01b031661031f610131565b6001600160a01b0316146103455760405162461bcd60e51b81526004016100de90610561565b6001600160a01b03811661036b5760405162461bcd60e51b81526004016100de9061051b565b600080546040516001600160a01b03808516939216917f8be0079c531659141344cd1fd0a4f28419497f9722a3daafe3b4186f6b6457e091a3600080546001600160a01b0319166001600160a01b0392909216919091179055565b3390565b60008083601f8401126103db578182fd5b50813567ffffffffffffffff8111156103f2578182fd5b602083019150836020808302850101111561040c57600080fd5b9250929050565b600060208284031215610424578081fd5b81356001600160a01b038116811461043a578182fd5b9392505050565b60008060008060408587031215610456578283fd5b843567ffffffffffffffff8082111561046d578485fd5b610479888389016103ca565b90965094506020870135915080821115610491578384fd5b5061049e878288016103ca565b95989497509550505050565b6000602082840312156104bb578081fd5b8151801515811461043a578182fd5b6001600160a01b0391909116815260200190565b6001600160a01b039384168152919092166020820152604081019190915260600190565b6001600160a01b03929092168252602082015260400190565b60208082526026908201527f4f776e61626c653a206e6577206f776e657220697320746865207a65726f206160408201526564647265737360d01b606082015260800190565b6020808252818101527f4f776e61626c653a2063616c6c6572206973206e6f7420746865206f776e6572604082015260600190565b60006000198214156105b657634e487b7160e01b81526011600452602481fd5b506001019056fea26469706673582212205d673a1156ea874e08d45fb152c95ac50ad036632c4ad8fcc36b8a4dafa4caf264736f6c63430008000033",
    "sourcePath": "/home/drgorilla/Documents/solidity/iBNB-presale/contracts/iBNB_airdrops.sol",
    "compiler": {
        "name": "solc",
        "version": "0.8.0+commit.c7dfd78e"
    },
    "functionHashes": {
        "owner()": "8da5cb5b",
        "renounceOwnership()": "715018a6",
        "send_airdrop(address[],uint256[])": "932867d8",
        "transferOwnership(address)": "f2fde38b"
    },
    "gasEstimates": {
        "creation": {
            "codeDepositCost": "304600",
            "executionCost": "infinite",
            "totalCost": "infinite"
        },
        "external": {
            "owner()": "1070",
            "renounceOwnership()": "24233",
            "send_airdrop(address[],uint256[])": "infinite",
            "transferOwnership(address)": "24499"
        }
    }
}