{
    "contractName": "iBNB_presale",
    "abi": [
        {
            "inputs": [
                {
                    "internalType": "address",
                    "name": "_router",
                    "type": "address"
                },
                {
                    "internalType": "address",
                    "name": "_ibnb_address",
                    "type": "address"
                }
            ],
            "stateMutability": "nonpayable",
            "type": "constructor"
        },
        {
            "anonymous": false,
            "inputs": [
                {
                    "indexed": false,
                    "internalType": "address",
                    "name": "",
                    "type": "address"
                },
                {
                    "indexed": false,
                    "internalType": "uint256",
                    "name": "",
                    "type": "uint256"
                },
                {
                    "indexed": false,
                    "internalType": "uint256",
                    "name": "",
                    "type": "uint256"
                }
            ],
            "name": "Buy",
            "type": "event"
        },
        {
            "anonymous": false,
            "inputs": [
                {
                    "indexed": false,
                    "internalType": "address",
                    "name": "",
                    "type": "address"
                },
                {
                    "indexed": false,
                    "internalType": "uint256",
                    "name": "",
                    "type": "uint256"
                },
                {
                    "indexed": false,
                    "internalType": "uint256",
                    "name": "",
                    "type": "uint256"
                }
            ],
            "name": "Claimable",
            "type": "event"
        },
        {
            "anonymous": false,
            "inputs": [
                {
                    "indexed": false,
                    "internalType": "uint256",
                    "name": "",
                    "type": "uint256"
                },
                {
                    "indexed": false,
                    "internalType": "uint256",
                    "name": "",
                    "type": "uint256"
                }
            ],
            "name": "LiquidityTransferred",
            "type": "event"
        },
        {
            "anonymous": false,
            "inputs": [
                {
                    "indexed": true,
                    "internalType": "address",
                    "name": "previousOwner",
                    "type": "address"
                },
                {
                    "indexed": true,
                    "internalType": "address",
                    "name": "newOwner",
                    "type": "address"
                }
            ],
            "name": "OwnershipTransferred",
            "type": "event"
        },
        {
            "inputs": [
                {
                    "internalType": "address[]",
                    "name": "_adr",
                    "type": "address[]"
                }
            ],
            "name": "addWhitelist",
            "outputs": [],
            "stateMutability": "nonpayable",
            "type": "function"
        },
        {
            "inputs": [],
            "name": "allowanceLeftInBNB",
            "outputs": [
                {
                    "internalType": "uint256",
                    "name": "",
                    "type": "uint256"
                }
            ],
            "stateMutability": "view",
            "type": "function"
        },
        {
            "inputs": [],
            "name": "amountTokenBought",
            "outputs": [
                {
                    "internalType": "uint256",
                    "name": "",
                    "type": "uint256"
                }
            ],
            "stateMutability": "view",
            "type": "function"
        },
        {
            "inputs": [],
            "name": "buy",
            "outputs": [],
            "stateMutability": "payable",
            "type": "function"
        },
        {
            "inputs": [],
            "name": "claim",
            "outputs": [],
            "stateMutability": "nonpayable",
            "type": "function"
        },
        {
            "inputs": [
                {
                    "internalType": "uint256",
                    "name": "TokenPerBNB",
                    "type": "uint256"
                },
                {
                    "internalType": "uint256",
                    "name": "min_amount_slippage_in_percents",
                    "type": "uint256"
                }
            ],
            "name": "concludeAndAddLiquidity",
            "outputs": [],
            "stateMutability": "nonpayable",
            "type": "function"
        },
        {
            "inputs": [],
            "name": "iBNB_token",
            "outputs": [
                {
                    "internalType": "contract ERC20",
                    "name": "",
                    "type": "address"
                }
            ],
            "stateMutability": "view",
            "type": "function"
        },
        {
            "inputs": [],
            "name": "isWhitelisted",
            "outputs": [
                {
                    "internalType": "bool",
                    "name": "",
                    "type": "bool"
                }
            ],
            "stateMutability": "nonpayable",
            "type": "function"
        },
        {
            "inputs": [],
            "name": "owner",
            "outputs": [
                {
                    "internalType": "address",
                    "name": "",
                    "type": "address"
                }
            ],
            "stateMutability": "view",
            "type": "function"
        },
        {
            "inputs": [],
            "name": "presale_token_per_BNB",
            "outputs": [
                {
                    "internalType": "uint256",
                    "name": "",
                    "type": "uint256"
                }
            ],
            "stateMutability": "view",
            "type": "function"
        },
        {
            "inputs": [],
            "name": "public_token_per_BNB",
            "outputs": [
                {
                    "internalType": "uint256",
                    "name": "",
                    "type": "uint256"
                }
            ],
            "stateMutability": "view",
            "type": "function"
        },
        {
            "inputs": [],
            "name": "renounceOwnership",
            "outputs": [],
            "stateMutability": "nonpayable",
            "type": "function"
        },
        {
            "inputs": [],
            "name": "saleStatus",
            "outputs": [
                {
                    "internalType": "uint256",
                    "name": "",
                    "type": "uint256"
                }
            ],
            "stateMutability": "view",
            "type": "function"
        },
        {
            "inputs": [],
            "name": "sale_status",
            "outputs": [
                {
                    "internalType": "enum iBNB_presale.status",
                    "name": "",
                    "type": "uint8"
                }
            ],
            "stateMutability": "view",
            "type": "function"
        },
        {
            "inputs": [],
            "name": "startSale",
            "outputs": [],
            "stateMutability": "nonpayable",
            "type": "function"
        },
        {
            "inputs": [],
            "name": "tokenLeftForPrivateSale",
            "outputs": [
                {
                    "internalType": "uint256",
                    "name": "",
                    "type": "uint256"
                }
            ],
            "stateMutability": "view",
            "type": "function"
        },
        {
            "inputs": [],
            "name": "tokenLeftForWhitelistSale",
            "outputs": [
                {
                    "internalType": "uint256",
                    "name": "",
                    "type": "uint256"
                }
            ],
            "stateMutability": "view",
            "type": "function"
        },
        {
            "inputs": [
                {
                    "internalType": "address",
                    "name": "newOwner",
                    "type": "address"
                }
            ],
            "name": "transferOwnership",
            "outputs": [],
            "stateMutability": "nonpayable",
            "type": "function"
        }
    ],
    "bytecode": "608060405264746a528800600455645d21dba0006005553480156200002357600080fd5b50604051620019143803806200191483398101604081905262000046916200025e565b60006200005262000219565b600080546001600160a01b0319166001600160a01b0383169081178255604051929350917f8be0079c531659141344cd1fd0a4f28419497f9722a3daafe3b4186f6b6457e0908290a350600c80546001600160a01b0319166001600160a01b038481169190911791829055604080516315ab88c960e31b815290516000939092169163ad5c464891600480820192602092909190829003018186803b158015620000fb57600080fd5b505afa15801562000110573d6000803e3d6000fd5b505050506040513d601f19601f820116820180604052508101906200013691906200023a565b6001600160a01b03161415620001695760405162461bcd60e51b81526004016200016090620002b8565b60405180910390fd5b600b80546001600160a01b0319166001600160a01b0383811691909117918290556040805163313ce56760e01b81529051929091169163313ce56791600480820192602092909190829003018186803b158015620001c657600080fd5b505afa158015620001db573d6000803e3d6000fd5b505050506040513d601f19601f8201168201806040525081019062000201919062000295565b60ff16600a5550506003805460ff19169055620002de565b3390565b80516001600160a01b03811681146200023557600080fd5b919050565b6000602082840312156200024c578081fd5b62000257826200021d565b9392505050565b6000806040838503121562000271578081fd5b6200027c836200021d565b91506200028c602084016200021d565b90509250929050565b600060208284031215620002a7578081fd5b815160ff8116811462000257578182fd5b6020808252600c908201526b2937baba32b91032b93937b960a11b604082015260600190565b61162680620002ee6000396000f3fe6080604052600436106101095760003560e01c806396b7a66b11610095578063ebc1ae5f11610064578063ebc1ae5f1461025c578063edac985b14610271578063f2fde38b14610291578063f87a4bde146102b1578063f9020e33146102c657610109565b806396b7a66b14610215578063a6f2ae3a1461022a578063b4e67e4b14610232578063b66a0e5d1461024757610109565b80634e71d92d116100dc5780634e71d92d1461019257806353e322d6146101a7578063611b4095146101bc578063715018a6146101de5780638da5cb5b146101f357610109565b80631aaf5f611461010e5780632c9d60ae1461013957806338164c1e1461014e5780634b8e1eb014610170575b600080fd5b34801561011a57600080fd5b506101236102db565b60405161013091906113de565b60405180910390f35b34801561014557600080fd5b506101236102e1565b34801561015a57600080fd5b5061016361039a565b60405161013091906111ca565b34801561017c57600080fd5b5061019061018b3660046110e8565b6103a3565b005b34801561019e57600080fd5b50610190610843565b3480156101b357600080fd5b5061012361098a565b3480156101c857600080fd5b506101d1610990565b60405161013091906111bf565b3480156101ea57600080fd5b506101906109a6565b3480156101ff57600080fd5b50610208610a2f565b6040516101309190611136565b34801561022157600080fd5b50610123610a3e565b610190610a60565b34801561023e57600080fd5b50610123610c04565b34801561025357600080fd5b50610190610c5b565b34801561026857600080fd5b50610208610d70565b34801561027d57600080fd5b5061019061028c366004611041565b610d7f565b34801561029d57600080fd5b506101906102ac36600461101a565b610e9e565b3480156102bd57600080fd5b50610123610f5e565b3480156102d257600080fd5b50610123610f8b565b60045481565b60006103956009546040518060600160405280602381526020016115a960239139600754600b546040516370a0823160e01b815261038e92916001600160a01b0316906370a0823190610338903090600401611136565b60206040518083038186803b15801561035057600080fd5b505afa158015610364573d6000803e3d6000fd5b505050506040513d601f19601f8201168201806040525081019061038891906110d0565b90610fb3565b9190610fc6565b905090565b60035460ff1681565b6103ab610ff2565b6001600160a01b03166103bc610a2f565b6001600160a01b0316146103eb5760405162461bcd60e51b81526004016103e29061131f565b60405180910390fd5b6003805460ff19166002179055600061040c47670de0b6b3a7640000610ff6565b905060006104a8600a54600a6104229190611473565b600b546040516370a0823160e01b81526001600160a01b03909116906370a0823190610452903090600401611136565b60206040518083038186803b15801561046a57600080fd5b505afa15801561047e573d6000803e3d6000fd5b505050506040513d601f19601f820116820180604052508101906104a291906110d0565b90610ff6565b9050836104b58284610ff6565b106104cb576104c48483611002565b90506104d8565b6104d58185610ff6565b91505b600b54600c54600a80546001600160a01b039384169363095ea7b393169161050a9161050391611473565b8590611002565b6040518363ffffffff1660e01b815260040161052792919061114a565b602060405180830381600087803b15801561054157600080fd5b505af1158015610555573d6000803e3d6000fd5b505050506040513d601f19601f8201168201806040525081019061057991906110b0565b50600c546001600160a01b031663f305d71961059d84670de0b6b3a7640000611002565b600b54600a80546001600160a01b03909216916105c5916105be9190611473565b8690611002565b6105ed60646104a28a6105e7600a54600a6105e09190611473565b8b90611002565b90611002565b61060860646104a28b6105e78c670de0b6b3a7640000611002565b610610610a2f565b426040518863ffffffff1660e01b815260040161063296959493929190611184565b6060604051808303818588803b15801561064b57600080fd5b505af115801561065f573d6000803e3d6000fd5b50505050506040513d601f19601f820116820180604052508101906106849190611109565b5050600b546040516370a0823160e01b81526001600160a01b0390911691506370a08231906106b7903090600401611136565b60206040518083038186803b1580156106cf57600080fd5b505afa1580156106e3573d6000803e3d6000fd5b505050506040513d601f19601f8201168201806040525081019061070791906110d0565b1561080757600b546040516370a0823160e01b81526001600160a01b039091169063a9059cbb90339083906370a0823190610746903090600401611136565b60206040518083038186803b15801561075e57600080fd5b505afa158015610772573d6000803e3d6000fd5b505050506040513d601f19601f8201168201806040525081019061079691906110d0565b6040518363ffffffff1660e01b81526004016107b392919061114a565b602060405180830381600087803b1580156107cd57600080fd5b505af11580156107e1573d6000803e3d6000fd5b505050506040513d601f19601f8201168201806040525081019061080591906110b0565b505b7f736cbe388dddb03fbd423e0d7e9f7430899824650b88b6c7eca0f1669f25450c82826040516108389291906113e7565b60405180910390a133ff5b600260035460ff16600281111561086a57634e487b7160e01b600052602160045260246000fd5b146108875760405162461bcd60e51b81526004016103e2906112f2565b336000908152600160205260409020546108b35760405162461bcd60e51b81526004016103e290611384565b336000908152600160205260408120546004546108dd91670de0b6b3a7640000916104a291611002565b33600081815260016020526040812055600b54600a80549394506001600160a01b039091169263a9059cbb92916109179161050391611473565b6040518363ffffffff1660e01b815260040161093492919061114a565b602060405180830381600087803b15801561094e57600080fd5b505af1158015610962573d6000803e3d6000fd5b505050506040513d601f19601f8201168201806040525081019061098691906110b0565b5050565b60055481565b3360009081526002602052604090205460ff1690565b6109ae610ff2565b6001600160a01b03166109bf610a2f565b6001600160a01b0316146109e55760405162461bcd60e51b81526004016103e29061131f565b600080546040516001600160a01b03909116907f8be0079c531659141344cd1fd0a4f28419497f9722a3daafe3b4186f6b6457e0908390a3600080546001600160a01b0319169055565b6000546001600160a01b031690565b3360009081526001602052604081205461039590671bc16d674ec80000611560565b600160035460ff166002811115610a8757634e487b7160e01b600052602160045260246000fd5b14610aa45760405162461bcd60e51b81526004016103e2906113af565b6702c68af0bb140000341015610acc5760405162461bcd60e51b81526004016103e2906112c2565b33600090815260016020526040902054671bc16d674ec8000090610af0903461100e565b1115610b0e5760405162461bcd60e51b81526004016103e290611354565b6000610b31670de0b6b3a76400006104a26004543461100290919063ffffffff16565b9050610b3b6102e1565b81111580610b6a57503360009081526002602052604090205460ff168015610b6a5750610b66610c04565b8111155b610b865760405162461bcd60e51b81526004016103e29061128b565b33600090815260016020526040902054610ba0903461100e565b33600081815260016020526040902091909155600a80547f0f41720e667ec1a6364dead7f748567a5b6c13205ac77b74ac7c05a10f017f6092913491610bea916105039190611473565b604051610bf993929190611163565b60405180910390a150565b60006103956009546040518060600160405280602581526020016115cc60259139600854600b546040516370a0823160e01b815261038e92916001600160a01b0316906370a0823190610338903090600401611136565b600060035460ff166002811115610c8257634e487b7160e01b600052602160045260246000fd5b14610c9f5760405162461bcd60e51b81526004016103e2906113af565b610ca7610ff2565b6001600160a01b0316610cb8610a2f565b6001600160a01b031614610cde5760405162461bcd60e51b81526004016103e29061131f565b6003805460ff19166001179055600b546040516370a0823160e01b81526001600160a01b03909116906370a0823190610d1b903090600401611136565b60206040518083038186803b158015610d3357600080fd5b505afa158015610d47573d6000803e3d6000fd5b505050506040513d601f19601f82011682018060405250810190610d6b91906110d0565b600655565b600b546001600160a01b031681565b610d87610ff2565b6001600160a01b0316610d98610a2f565b6001600160a01b031614610dbe5760405162461bcd60e51b81526004016103e29061131f565b60005b81811015610e995760026000848484818110610ded57634e487b7160e01b600052603260045260246000fd5b9050602002016020810190610e02919061101a565b6001600160a01b0316815260208101919091526040016000205460ff16610e8757600160026000858585818110610e4957634e487b7160e01b600052603260045260246000fd5b9050602002016020810190610e5e919061101a565b6001600160a01b031681526020810191909152604001600020805460ff19169115159190911790555b80610e9181611577565b915050610dc1565b505050565b610ea6610ff2565b6001600160a01b0316610eb7610a2f565b6001600160a01b031614610edd5760405162461bcd60e51b81526004016103e29061131f565b6001600160a01b038116610f035760405162461bcd60e51b81526004016103e290611245565b600080546040516001600160a01b03808516939216917f8be0079c531659141344cd1fd0a4f28419497f9722a3daafe3b4186f6b6457e091a3600080546001600160a01b0319166001600160a01b0392909216919091179055565b60045433600090815260016020526040812054909161039591670de0b6b3a7640000916104a29190611002565b60035460009060ff16600281111561039557634e487b7160e01b600052602160045260246000fd5b6000610fbf8284611560565b9392505050565b60008184841115610fea5760405162461bcd60e51b81526004016103e291906111f2565b505050900390565b3390565b6000610fbf828461140d565b6000610fbf8284611541565b6000610fbf82846113f5565b60006020828403121561102b578081fd5b81356001600160a01b0381168114610fbf578182fd5b60008060208385031215611053578081fd5b823567ffffffffffffffff8082111561106a578283fd5b818501915085601f83011261107d578283fd5b81358181111561108b578384fd5b866020808302850101111561109e578384fd5b60209290920196919550909350505050565b6000602082840312156110c1578081fd5b81518015158114610fbf578182fd5b6000602082840312156110e1578081fd5b5051919050565b600080604083850312156110fa578182fd5b50508035926020909101359150565b60008060006060848603121561111d578081fd5b8351925060208401519150604084015190509250925092565b6001600160a01b0391909116815260200190565b6001600160a01b03929092168252602082015260400190565b6001600160a01b039390931683526020830191909152604082015260600190565b6001600160a01b039687168152602081019590955260408501939093526060840191909152909216608082015260a081019190915260c00190565b901515815260200190565b60208101600383106111ec57634e487b7160e01b600052602160045260246000fd5b91905290565b6000602080835283518082850152825b8181101561121e57858101830151858201604001528201611202565b8181111561122f5783604083870101525b50601f01601f1916929092016040019392505050565b60208082526026908201527f4f776e61626c653a206e6577206f776e657220697320746865207a65726f206160408201526564647265737360d01b606082015260800190565b6020808252601b908201527f53616c653a204e6f7420656e6f75676820746f6b656e206c6566740000000000604082015260600190565b60208082526016908201527514d85b194e88155b99195c881b5a5b88185b5bdd5b9d60521b604082015260600190565b60208082526013908201527214d85b194e881b9bdd08195b991959081e595d606a1b604082015260600190565b6020808252818101527f4f776e61626c653a2063616c6c6572206973206e6f7420746865206f776e6572604082015260600190565b60208082526016908201527514d85b194e8818589bdd99481b585e08185b5bdd5b9d60521b604082015260600190565b6020808252601190820152703020746f6b656e7320746f20636c61696d60781b604082015260600190565b60208082526015908201527414d85b194e88185b1c9958591e481cdd185c9d1959605a1b604082015260600190565b90815260200190565b918252602082015260400190565b6000821982111561140857611408611592565b500190565b60008261142857634e487b7160e01b81526012600452602481fd5b500490565b80825b600180861161143f575061146a565b81870482111561145157611451611592565b8086161561145e57918102915b9490941c938002611430565b94509492505050565b6000610fbf600019848460008261148c57506001610fbf565b8161149957506000610fbf565b81600181146114af57600281146114b9576114e6565b6001915050610fbf565b60ff8411156114ca576114ca611592565b6001841b9150848211156114e0576114e0611592565b50610fbf565b5060208310610133831016604e8410600b8410161715611519575081810a8381111561151457611514611592565b610fbf565b611526848484600161142d565b80860482111561153857611538611592565b02949350505050565b600081600019048311821515161561155b5761155b611592565b500290565b60008282101561157257611572611592565b500390565b600060001982141561158b5761158b611592565b5060010190565b634e487b7160e01b600052601160045260246000fdfe507269766174652073616c653a204e6f206d6f726520746f6b656e20746f2073656c6c57686974656c6973742073616c653a204e6f206d6f726520746f6b656e20746f2073656c6ca264697066735822122045cfa97d4771c49955c356085e35f14a0c9906bc948094b74a617aeda245e88564736f6c63430008000033",
    "sourcePath": "/home/drgorilla/Documents/solidity/iBNB-presale/contracts/iBNB_presale.sol",
    "compiler": {
        "name": "solc",
        "version": "0.8.0+commit.c7dfd78e"
    },
    "functionHashes": {
        "addWhitelist(address[])": "edac985b",
        "allowanceLeftInBNB()": "96b7a66b",
        "amountTokenBought()": "f87a4bde",
        "buy()": "a6f2ae3a",
        "claim()": "4e71d92d",
        "concludeAndAddLiquidity(uint256,uint256)": "4b8e1eb0",
        "iBNB_token()": "ebc1ae5f",
        "isWhitelisted()": "611b4095",
        "owner()": "8da5cb5b",
        "presale_token_per_BNB()": "1aaf5f61",
        "public_token_per_BNB()": "53e322d6",
        "renounceOwnership()": "715018a6",
        "saleStatus()": "f9020e33",
        "sale_status()": "38164c1e",
        "startSale()": "b66a0e5d",
        "tokenLeftForPrivateSale()": "2c9d60ae",
        "tokenLeftForWhitelistSale()": "b4e67e4b",
        "transferOwnership(address)": "f2fde38b"
    },
    "gasEstimates": {
        "creation": {
            "codeDepositCost": "1134000",
            "executionCost": "infinite",
            "totalCost": "infinite"
        },
        "external": {
            "addWhitelist(address[])": "infinite",
            "allowanceLeftInBNB()": "1191",
            "amountTokenBought()": "infinite",
            "buy()": "infinite",
            "claim()": "infinite",
            "concludeAndAddLiquidity(uint256,uint256)": "infinite",
            "iBNB_token()": "1092",
            "isWhitelisted()": "1175",
            "owner()": "1181",
            "presale_token_per_BNB()": "1052",
            "public_token_per_BNB()": "1073",
            "renounceOwnership()": "24344",
            "saleStatus()": "1181",
            "sale_status()": "1128",
            "startSale()": "infinite",
            "tokenLeftForPrivateSale()": "infinite",
            "tokenLeftForWhitelistSale()": "infinite",
            "transferOwnership(address)": "24521"
        }
    }
}