{
    "contractName": "iBNB_presale",
    "abi": [
        {
            "inputs": [
                {
                    "internalType": "address",
                    "name": "_router",
                    "type": "address"
                },
                {
                    "internalType": "address",
                    "name": "_ibnb_address",
                    "type": "address"
                }
            ],
            "stateMutability": "nonpayable",
            "type": "constructor"
        },
        {
            "anonymous": false,
            "inputs": [
                {
                    "indexed": false,
                    "internalType": "address",
                    "name": "",
                    "type": "address"
                },
                {
                    "indexed": false,
                    "internalType": "uint256",
                    "name": "",
                    "type": "uint256"
                },
                {
                    "indexed": false,
                    "internalType": "uint256",
                    "name": "",
                    "type": "uint256"
                }
            ],
            "name": "Buy",
            "type": "event"
        },
        {
            "anonymous": false,
            "inputs": [
                {
                    "indexed": false,
                    "internalType": "address",
                    "name": "",
                    "type": "address"
                },
                {
                    "indexed": false,
                    "internalType": "uint256",
                    "name": "",
                    "type": "uint256"
                },
                {
                    "indexed": false,
                    "internalType": "uint256",
                    "name": "",
                    "type": "uint256"
                }
            ],
            "name": "Claimable",
            "type": "event"
        },
        {
            "anonymous": false,
            "inputs": [
                {
                    "indexed": false,
                    "internalType": "uint256",
                    "name": "",
                    "type": "uint256"
                },
                {
                    "indexed": false,
                    "internalType": "uint256",
                    "name": "",
                    "type": "uint256"
                }
            ],
            "name": "LiquidityTransferred",
            "type": "event"
        },
        {
            "anonymous": false,
            "inputs": [
                {
                    "indexed": true,
                    "internalType": "address",
                    "name": "previousOwner",
                    "type": "address"
                },
                {
                    "indexed": true,
                    "internalType": "address",
                    "name": "newOwner",
                    "type": "address"
                }
            ],
            "name": "OwnershipTransferred",
            "type": "event"
        },
        {
            "inputs": [
                {
                    "internalType": "address[50]",
                    "name": "_adr",
                    "type": "address[50]"
                }
            ],
            "name": "addBlockWhitelist",
            "outputs": [],
            "stateMutability": "nonpayable",
            "type": "function"
        },
        {
            "inputs": [
                {
                    "internalType": "address",
                    "name": "_adr",
                    "type": "address"
                }
            ],
            "name": "addWhitelist",
            "outputs": [],
            "stateMutability": "nonpayable",
            "type": "function"
        },
        {
            "inputs": [],
            "name": "allowanceLeftInBNB",
            "outputs": [
                {
                    "internalType": "uint256",
                    "name": "",
                    "type": "uint256"
                }
            ],
            "stateMutability": "view",
            "type": "function"
        },
        {
            "inputs": [],
            "name": "buy",
            "outputs": [],
            "stateMutability": "payable",
            "type": "function"
        },
        {
            "inputs": [],
            "name": "claim",
            "outputs": [],
            "stateMutability": "nonpayable",
            "type": "function"
        },
        {
            "inputs": [
                {
                    "internalType": "uint256",
                    "name": "TokenPerBNB",
                    "type": "uint256"
                },
                {
                    "internalType": "uint256",
                    "name": "min_amount_slippage_in_percents",
                    "type": "uint256"
                }
            ],
            "name": "concludeAndAddLiquidity",
            "outputs": [],
            "stateMutability": "nonpayable",
            "type": "function"
        },
        {
            "inputs": [],
            "name": "iBNB_token",
            "outputs": [
                {
                    "internalType": "contract ERC20",
                    "name": "",
                    "type": "address"
                }
            ],
            "stateMutability": "view",
            "type": "function"
        },
        {
            "inputs": [],
            "name": "owner",
            "outputs": [
                {
                    "internalType": "address",
                    "name": "",
                    "type": "address"
                }
            ],
            "stateMutability": "view",
            "type": "function"
        },
        {
            "inputs": [],
            "name": "presale_token_per_BNB",
            "outputs": [
                {
                    "internalType": "uint256",
                    "name": "",
                    "type": "uint256"
                }
            ],
            "stateMutability": "view",
            "type": "function"
        },
        {
            "inputs": [],
            "name": "public_token_per_BNB",
            "outputs": [
                {
                    "internalType": "uint256",
                    "name": "",
                    "type": "uint256"
                }
            ],
            "stateMutability": "view",
            "type": "function"
        },
        {
            "inputs": [],
            "name": "renounceOwnership",
            "outputs": [],
            "stateMutability": "nonpayable",
            "type": "function"
        },
        {
            "inputs": [],
            "name": "sale_status",
            "outputs": [
                {
                    "internalType": "enum iBNB_presale.status",
                    "name": "",
                    "type": "uint8"
                }
            ],
            "stateMutability": "view",
            "type": "function"
        },
        {
            "inputs": [],
            "name": "startSale",
            "outputs": [],
            "stateMutability": "nonpayable",
            "type": "function"
        },
        {
            "inputs": [],
            "name": "tokenLeftForPrivateSale",
            "outputs": [
                {
                    "internalType": "uint256",
                    "name": "",
                    "type": "uint256"
                }
            ],
            "stateMutability": "view",
            "type": "function"
        },
        {
            "inputs": [],
            "name": "tokenLeftForWhitelistSale",
            "outputs": [
                {
                    "internalType": "uint256",
                    "name": "",
                    "type": "uint256"
                }
            ],
            "stateMutability": "view",
            "type": "function"
        },
        {
            "inputs": [
                {
                    "internalType": "address",
                    "name": "newOwner",
                    "type": "address"
                }
            ],
            "name": "transferOwnership",
            "outputs": [],
            "stateMutability": "nonpayable",
            "type": "function"
        }
    ],
    "bytecode": "608060405264746a528800600455645d21dba0006005553480156200002357600080fd5b50604051620018de380380620018de83398101604081905262000046916200025e565b60006200005262000219565b600080546001600160a01b0319166001600160a01b0383169081178255604051929350917f8be0079c531659141344cd1fd0a4f28419497f9722a3daafe3b4186f6b6457e0908290a350600c80546001600160a01b0319166001600160a01b038481169190911791829055604080516315ab88c960e31b815290516000939092169163ad5c464891600480820192602092909190829003018186803b158015620000fb57600080fd5b505afa15801562000110573d6000803e3d6000fd5b505050506040513d601f19601f820116820180604052508101906200013691906200023a565b6001600160a01b03161415620001695760405162461bcd60e51b81526004016200016090620002b8565b60405180910390fd5b600b80546001600160a01b0319166001600160a01b0383811691909117918290556040805163313ce56760e01b81529051929091169163313ce56791600480820192602092909190829003018186803b158015620001c657600080fd5b505afa158015620001db573d6000803e3d6000fd5b505050506040513d601f19601f8201168201806040525081019062000201919062000295565b60ff16600a5550506003805460ff19169055620002de565b3390565b80516001600160a01b03811681146200023557600080fd5b919050565b6000602082840312156200024c578081fd5b62000257826200021d565b9392505050565b6000806040838503121562000271578081fd5b6200027c836200021d565b91506200028c602084016200021d565b90509250929050565b600060208284031215620002a7578081fd5b815160ff8116811462000257578182fd5b6020808252600c908201526b2937baba32b91032b93937b960a11b604082015260600190565b6115f080620002ee6000396000f3fe6080604052600436106100f35760003560e01c806396b7a66b1161008a578063ebc1ae5f11610059578063ebc1ae5f14610224578063f2fde38b14610239578063f80f5dd514610259578063fc64db4414610279576100f3565b806396b7a66b146101dd578063a6f2ae3a146101f2578063b4e67e4b146101fa578063b66a0e5d1461020f576100f3565b80634e71d92d116100c65780634e71d92d1461017c57806353e322d614610191578063715018a6146101a65780638da5cb5b146101bb576100f3565b80631aaf5f61146100f85780632c9d60ae1461012357806338164c1e146101385780634b8e1eb01461015a575b600080fd5b34801561010457600080fd5b5061010d610299565b60405161011a9190611392565b60405180910390f35b34801561012f57600080fd5b5061010d61029f565b34801561014457600080fd5b5061014d610358565b60405161011a9190611152565b34801561016657600080fd5b5061017a61017536600461107b565b610361565b005b34801561018857600080fd5b5061017a610801565b34801561019d57600080fd5b5061010d61092c565b3480156101b257600080fd5b5061017a610932565b3480156101c757600080fd5b506101d06109bb565b60405161011a91906110c9565b3480156101e957600080fd5b5061010d6109ca565b61017a6109ec565b34801561020657600080fd5b5061010d610b90565b34801561021b57600080fd5b5061017a610be7565b34801561023057600080fd5b506101d0610cfc565b34801561024557600080fd5b5061017a610254366004610f9d565b610d0b565b34801561026557600080fd5b5061017a610274366004610f9d565b610dcb565b34801561028557600080fd5b5061017a610294366004610fb7565b610e67565b60045481565b600061035360095460405180606001604052806023815260200161157360239139600754600b546040516370a0823160e01b815261034c92916001600160a01b0316906370a08231906102f69030906004016110c9565b60206040518083038186803b15801561030e57600080fd5b505afa158015610322573d6000803e3d6000fd5b505050506040513d601f19601f820116820180604052508101906103469190611063565b90610f1a565b9190610f2d565b905090565b60035460ff1681565b610369610f59565b6001600160a01b031661037a6109bb565b6001600160a01b0316146103a95760405162461bcd60e51b81526004016103a0906112d1565b60405180910390fd5b6003805460ff1916600217905560006103ca47670de0b6b3a7640000610f5d565b90506000610466600a54600a6103e09190611427565b600b546040516370a0823160e01b81526001600160a01b03909116906370a08231906104109030906004016110c9565b60206040518083038186803b15801561042857600080fd5b505afa15801561043c573d6000803e3d6000fd5b505050506040513d601f19601f820116820180604052508101906104609190611063565b90610f5d565b9050836104738284610f5d565b10610489576104828483610f69565b9050610496565b6104938185610f5d565b91505b600b54600c54600a80546001600160a01b039384169363095ea7b39316916104c8916104c191611427565b8590610f69565b6040518363ffffffff1660e01b81526004016104e59291906110dd565b602060405180830381600087803b1580156104ff57600080fd5b505af1158015610513573d6000803e3d6000fd5b505050506040513d601f19601f820116820180604052508101906105379190611043565b50600c546001600160a01b031663f305d71961055b84670de0b6b3a7640000610f69565b600b54600a80546001600160a01b03909216916105839161057c9190611427565b8690610f69565b6105ab60646104608a6105a5600a54600a61059e9190611427565b8b90610f69565b90610f69565b6105c660646104608b6105a58c670de0b6b3a7640000610f69565b6105ce6109bb565b426040518863ffffffff1660e01b81526004016105f096959493929190611117565b6060604051808303818588803b15801561060957600080fd5b505af115801561061d573d6000803e3d6000fd5b50505050506040513d601f19601f82011682018060405250810190610642919061109c565b5050600b546040516370a0823160e01b81526001600160a01b0390911691506370a08231906106759030906004016110c9565b60206040518083038186803b15801561068d57600080fd5b505afa1580156106a1573d6000803e3d6000fd5b505050506040513d601f19601f820116820180604052508101906106c59190611063565b156107c557600b546040516370a0823160e01b81526001600160a01b039091169063a9059cbb90339083906370a08231906107049030906004016110c9565b60206040518083038186803b15801561071c57600080fd5b505afa158015610730573d6000803e3d6000fd5b505050506040513d601f19601f820116820180604052508101906107549190611063565b6040518363ffffffff1660e01b81526004016107719291906110dd565b602060405180830381600087803b15801561078b57600080fd5b505af115801561079f573d6000803e3d6000fd5b505050506040513d601f19601f820116820180604052508101906107c39190611043565b505b7f736cbe388dddb03fbd423e0d7e9f7430899824650b88b6c7eca0f1669f25450c82826040516107f692919061139b565b60405180910390a133ff5b600260035460ff16600281111561082857634e487b7160e01b600052602160045260246000fd5b146108455760405162461bcd60e51b81526004016103a0906112a4565b336000908152600160205260409020546108715760405162461bcd60e51b81526004016103a09061127a565b3360009081526001602052604081205460045461088d91610f69565b600b54600a80549293506001600160a01b039091169163a9059cbb9133916108b9916104c19190611427565b6040518363ffffffff1660e01b81526004016108d69291906110dd565b602060405180830381600087803b1580156108f057600080fd5b505af1158015610904573d6000803e3d6000fd5b505050506040513d601f19601f820116820180604052508101906109289190611043565b5050565b60055481565b61093a610f59565b6001600160a01b031661094b6109bb565b6001600160a01b0316146109715760405162461bcd60e51b81526004016103a0906112d1565b600080546040516001600160a01b03909116907f8be0079c531659141344cd1fd0a4f28419497f9722a3daafe3b4186f6b6457e0908390a3600080546001600160a01b0319169055565b6000546001600160a01b031690565b3360009081526001602052604081205461035390671bc16d674ec80000611514565b600160035460ff166002811115610a1357634e487b7160e01b600052602160045260246000fd5b14610a305760405162461bcd60e51b81526004016103a090611363565b6702c68af0bb140000341015610a585760405162461bcd60e51b81526004016103a09061124a565b33600090815260016020526040902054671bc16d674ec8000090610a7c9034610f75565b1115610a9a5760405162461bcd60e51b81526004016103a090611333565b6000610abd670de0b6b3a764000061046060045434610f6990919063ffffffff16565b9050610ac761029f565b81111580610af657503360009081526002602052604090205460ff168015610af65750610af2610b90565b8111155b610b125760405162461bcd60e51b81526004016103a090611213565b33600090815260016020526040902054610b2c9034610f75565b33600081815260016020526040902091909155600a80547f0f41720e667ec1a6364dead7f748567a5b6c13205ac77b74ac7c05a10f017f6092913491610b76916104c19190611427565b604051610b85939291906110f6565b60405180910390a150565b600061035360095460405180606001604052806025815260200161159660259139600854600b546040516370a0823160e01b815261034c92916001600160a01b0316906370a08231906102f69030906004016110c9565b600060035460ff166002811115610c0e57634e487b7160e01b600052602160045260246000fd5b14610c2b5760405162461bcd60e51b81526004016103a090611363565b610c33610f59565b6001600160a01b0316610c446109bb565b6001600160a01b031614610c6a5760405162461bcd60e51b81526004016103a0906112d1565b6003805460ff19166001179055600b546040516370a0823160e01b81526001600160a01b03909116906370a0823190610ca79030906004016110c9565b60206040518083038186803b158015610cbf57600080fd5b505afa158015610cd3573d6000803e3d6000fd5b505050506040513d601f19601f82011682018060405250810190610cf79190611063565b600655565b600b546001600160a01b031681565b610d13610f59565b6001600160a01b0316610d246109bb565b6001600160a01b031614610d4a5760405162461bcd60e51b81526004016103a0906112d1565b6001600160a01b038116610d705760405162461bcd60e51b81526004016103a0906111cd565b600080546040516001600160a01b03808516939216917f8be0079c531659141344cd1fd0a4f28419497f9722a3daafe3b4186f6b6457e091a3600080546001600160a01b0319166001600160a01b0392909216919091179055565b610dd3610f59565b6001600160a01b0316610de46109bb565b6001600160a01b031614610e0a5760405162461bcd60e51b81526004016103a0906112d1565b6001600160a01b03811660009081526002602052604090205460ff1615610e435760405162461bcd60e51b81526004016103a090611306565b6001600160a01b03166000908152600260205260409020805460ff19166001179055565b610e6f610f59565b6001600160a01b0316610e806109bb565b6001600160a01b031614610ea65760405162461bcd60e51b81526004016103a0906112d1565b60005b603281101561092857600160026000848460328110610ed857634e487b7160e01b600052603260045260246000fd5b602090810291909101516001600160a01b03168252810191909152604001600020805460ff191691151591909117905580610f128161152b565b915050610ea9565b6000610f268284611514565b9392505050565b60008184841115610f515760405162461bcd60e51b81526004016103a0919061117a565b505050900390565b3390565b6000610f2682846113c1565b6000610f2682846114f5565b6000610f2682846113a9565b80356001600160a01b0381168114610f9857600080fd5b919050565b600060208284031215610fae578081fd5b610f2682610f81565b6000610640808385031215610fca578182fd5b83601f840112610fd8578182fd5b60405181810181811067ffffffffffffffff82111715610ffa57610ffa61155c565b604052808483810187101561100d578485fd5b8493505b60328410156110385761102381610f81565b82526001939093019260209182019101611011565b509095945050505050565b600060208284031215611054578081fd5b81518015158114610f26578182fd5b600060208284031215611074578081fd5b5051919050565b6000806040838503121561108d578081fd5b50508035926020909101359150565b6000806000606084860312156110b0578081fd5b8351925060208401519150604084015190509250925092565b6001600160a01b0391909116815260200190565b6001600160a01b03929092168252602082015260400190565b6001600160a01b039390931683526020830191909152604082015260600190565b6001600160a01b039687168152602081019590955260408501939093526060840191909152909216608082015260a081019190915260c00190565b602081016003831061117457634e487b7160e01b600052602160045260246000fd5b91905290565b6000602080835283518082850152825b818110156111a65785810183015185820160400152820161118a565b818111156111b75783604083870101525b50601f01601f1916929092016040019392505050565b60208082526026908201527f4f776e61626c653a206e6577206f776e657220697320746865207a65726f206160408201526564647265737360d01b606082015260800190565b6020808252601b908201527f53616c653a204e6f7420656e6f75676820746f6b656e206c6566740000000000604082015260600190565b60208082526016908201527514d85b194e88155b99195c881b5a5b88185b5bdd5b9d60521b604082015260600190565b60208082526010908201526f0c081d1bdad95b9cc8185b1b1bddd95960821b604082015260600190565b60208082526013908201527214d85b194e881b9bdd08195b991959081e595d606a1b604082015260600190565b6020808252818101527f4f776e61626c653a2063616c6c6572206973206e6f7420746865206f776e6572604082015260600190565b602080825260139082015272105b1c9958591e481dda1a5d195b1a5cdd1959606a1b604082015260600190565b60208082526016908201527514d85b194e8818589bdd99481b585e08185b5bdd5b9d60521b604082015260600190565b60208082526015908201527414d85b194e88185b1c9958591e481cdd185c9d1959605a1b604082015260600190565b90815260200190565b918252602082015260400190565b600082198211156113bc576113bc611546565b500190565b6000826113dc57634e487b7160e01b81526012600452602481fd5b500490565b80825b60018086116113f3575061141e565b81870482111561140557611405611546565b8086161561141257918102915b9490941c9380026113e4565b94509492505050565b6000610f26600019848460008261144057506001610f26565b8161144d57506000610f26565b8160018114611463576002811461146d5761149a565b6001915050610f26565b60ff84111561147e5761147e611546565b6001841b91508482111561149457611494611546565b50610f26565b5060208310610133831016604e8410600b84101617156114cd575081810a838111156114c8576114c8611546565b610f26565b6114da84848460016113e1565b8086048211156114ec576114ec611546565b02949350505050565b600081600019048311821515161561150f5761150f611546565b500290565b60008282101561152657611526611546565b500390565b600060001982141561153f5761153f611546565b5060010190565b634e487b7160e01b600052601160045260246000fd5b634e487b7160e01b600052604160045260246000fdfe507269766174652073616c653a204e6f206d6f726520746f6b656e20746f2073656c6c57686974656c6973742073616c653a204e6f206d6f726520746f6b656e20746f2073656c6ca2646970667358221220891461ad140cf96ef13fb48d3a2d9d92e52fa4c5cca15b854e9ad74639694f7964736f6c63430008000033",
    "sourcePath": "/home/drgorilla/Documents/solidity/iBNB-presale/contracts/iBNB_presale.sol",
    "compiler": {
        "name": "solc",
        "version": "0.8.0+commit.c7dfd78e"
    },
    "functionHashes": {
        "addBlockWhitelist(address[50])": "fc64db44",
        "addWhitelist(address)": "f80f5dd5",
        "allowanceLeftInBNB()": "96b7a66b",
        "buy()": "a6f2ae3a",
        "claim()": "4e71d92d",
        "concludeAndAddLiquidity(uint256,uint256)": "4b8e1eb0",
        "iBNB_token()": "ebc1ae5f",
        "owner()": "8da5cb5b",
        "presale_token_per_BNB()": "1aaf5f61",
        "public_token_per_BNB()": "53e322d6",
        "renounceOwnership()": "715018a6",
        "sale_status()": "38164c1e",
        "startSale()": "b66a0e5d",
        "tokenLeftForPrivateSale()": "2c9d60ae",
        "tokenLeftForWhitelistSale()": "b4e67e4b",
        "transferOwnership(address)": "f2fde38b"
    },
    "gasEstimates": {
        "creation": {
            "codeDepositCost": "1123200",
            "executionCost": "infinite",
            "totalCost": "infinite"
        },
        "external": {
            "addBlockWhitelist(address[50])": "infinite",
            "addWhitelist(address)": "23119",
            "allowanceLeftInBNB()": "1191",
            "buy()": "infinite",
            "claim()": "infinite",
            "concludeAndAddLiquidity(uint256,uint256)": "infinite",
            "iBNB_token()": "1092",
            "owner()": "1159",
            "presale_token_per_BNB()": "1052",
            "public_token_per_BNB()": "1073",
            "renounceOwnership()": "24322",
            "sale_status()": "1128",
            "startSale()": "infinite",
            "tokenLeftForPrivateSale()": "infinite",
            "tokenLeftForWhitelistSale()": "infinite",
            "transferOwnership(address)": "24534"
        }
    }
}