{
    "contractName": "iBNB_presale",
    "abi": [
        {
            "inputs": [
                {
                    "internalType": "address",
                    "name": "_router",
                    "type": "address"
                },
                {
                    "internalType": "address",
                    "name": "_ibnb_address",
                    "type": "address"
                }
            ],
            "stateMutability": "nonpayable",
            "type": "constructor"
        },
        {
            "anonymous": false,
            "inputs": [
                {
                    "indexed": false,
                    "internalType": "address",
                    "name": "",
                    "type": "address"
                },
                {
                    "indexed": false,
                    "internalType": "uint256",
                    "name": "",
                    "type": "uint256"
                },
                {
                    "indexed": false,
                    "internalType": "uint256",
                    "name": "",
                    "type": "uint256"
                }
            ],
            "name": "Buy",
            "type": "event"
        },
        {
            "anonymous": false,
            "inputs": [
                {
                    "indexed": false,
                    "internalType": "address",
                    "name": "",
                    "type": "address"
                },
                {
                    "indexed": false,
                    "internalType": "uint256",
                    "name": "",
                    "type": "uint256"
                },
                {
                    "indexed": false,
                    "internalType": "uint256",
                    "name": "",
                    "type": "uint256"
                }
            ],
            "name": "Claimable",
            "type": "event"
        },
        {
            "anonymous": false,
            "inputs": [
                {
                    "indexed": false,
                    "internalType": "uint256",
                    "name": "",
                    "type": "uint256"
                },
                {
                    "indexed": false,
                    "internalType": "uint256",
                    "name": "",
                    "type": "uint256"
                }
            ],
            "name": "LiquidityTransferred",
            "type": "event"
        },
        {
            "anonymous": false,
            "inputs": [
                {
                    "indexed": true,
                    "internalType": "address",
                    "name": "previousOwner",
                    "type": "address"
                },
                {
                    "indexed": true,
                    "internalType": "address",
                    "name": "newOwner",
                    "type": "address"
                }
            ],
            "name": "OwnershipTransferred",
            "type": "event"
        },
        {
            "inputs": [
                {
                    "internalType": "address[50]",
                    "name": "_adr",
                    "type": "address[50]"
                }
            ],
            "name": "addBlockWhitelist",
            "outputs": [],
            "stateMutability": "nonpayable",
            "type": "function"
        },
        {
            "inputs": [],
            "name": "buy",
            "outputs": [],
            "stateMutability": "payable",
            "type": "function"
        },
        {
            "inputs": [],
            "name": "claim",
            "outputs": [],
            "stateMutability": "nonpayable",
            "type": "function"
        },
        {
            "inputs": [
                {
                    "internalType": "uint256",
                    "name": "TokenPerBNB",
                    "type": "uint256"
                },
                {
                    "internalType": "uint256",
                    "name": "min_amount_slippage_in_percents",
                    "type": "uint256"
                }
            ],
            "name": "concludeAndAddLiquidity",
            "outputs": [],
            "stateMutability": "nonpayable",
            "type": "function"
        },
        {
            "inputs": [],
            "name": "iBNB_token",
            "outputs": [
                {
                    "internalType": "contract ERC20",
                    "name": "",
                    "type": "address"
                }
            ],
            "stateMutability": "view",
            "type": "function"
        },
        {
            "inputs": [],
            "name": "owner",
            "outputs": [
                {
                    "internalType": "address",
                    "name": "",
                    "type": "address"
                }
            ],
            "stateMutability": "view",
            "type": "function"
        },
        {
            "inputs": [],
            "name": "presale_token_per_BNB",
            "outputs": [
                {
                    "internalType": "uint256",
                    "name": "",
                    "type": "uint256"
                }
            ],
            "stateMutability": "view",
            "type": "function"
        },
        {
            "inputs": [],
            "name": "public_token_per_BNB",
            "outputs": [
                {
                    "internalType": "uint256",
                    "name": "",
                    "type": "uint256"
                }
            ],
            "stateMutability": "view",
            "type": "function"
        },
        {
            "inputs": [],
            "name": "renounceOwnership",
            "outputs": [],
            "stateMutability": "nonpayable",
            "type": "function"
        },
        {
            "inputs": [],
            "name": "sale_status",
            "outputs": [
                {
                    "internalType": "enum iBNB_presale.status",
                    "name": "",
                    "type": "uint8"
                }
            ],
            "stateMutability": "view",
            "type": "function"
        },
        {
            "inputs": [],
            "name": "startWhitelistSale",
            "outputs": [],
            "stateMutability": "nonpayable",
            "type": "function"
        },
        {
            "inputs": [],
            "name": "tokenLeftForSale",
            "outputs": [
                {
                    "internalType": "uint256",
                    "name": "",
                    "type": "uint256"
                }
            ],
            "stateMutability": "view",
            "type": "function"
        },
        {
            "inputs": [
                {
                    "internalType": "address",
                    "name": "newOwner",
                    "type": "address"
                }
            ],
            "name": "transferOwnership",
            "outputs": [],
            "stateMutability": "nonpayable",
            "type": "function"
        }
    ],
    "bytecode": "608060405264746a528800600455645d21dba0006005553480156200002357600080fd5b50604051620016783803806200167883398101604081905262000046916200025e565b60006200005262000219565b600080546001600160a01b0319166001600160a01b0383169081178255604051929350917f8be0079c531659141344cd1fd0a4f28419497f9722a3daafe3b4186f6b6457e0908290a350600980546001600160a01b0319166001600160a01b038481169190911791829055604080516315ab88c960e31b815290516000939092169163ad5c464891600480820192602092909190829003018186803b158015620000fb57600080fd5b505afa15801562000110573d6000803e3d6000fd5b505050506040513d601f19601f820116820180604052508101906200013691906200023a565b6001600160a01b03161415620001695760405162461bcd60e51b81526004016200016090620002b8565b60405180910390fd5b600880546001600160a01b0319166001600160a01b0383811691909117918290556040805163313ce56760e01b81529051929091169163313ce56791600480820192602092909190829003018186803b158015620001c657600080fd5b505afa158015620001db573d6000803e3d6000fd5b505050506040513d601f19601f8201168201806040525081019062000201919062000295565b60ff1660075550506003805460ff19169055620002de565b3390565b80516001600160a01b03811681146200023557600080fd5b919050565b6000602082840312156200024c578081fd5b62000257826200021d565b9392505050565b6000806040838503121562000271578081fd5b6200027c836200021d565b91506200028c602084016200021d565b90509250929050565b600060208284031215620002a7578081fd5b815160ff8116811462000257578182fd5b6020808252600c908201526b2937baba32b91032b93937b960a11b604082015260600190565b61138a80620002ee6000396000f3fe6080604052600436106100c25760003560e01c8063715018a61161007f578063ebc1ae5f11610059578063ebc1ae5f146101b4578063f2fde38b146101c9578063fc64db44146101e9578063ff44e91514610209576100c2565b8063715018a6146101755780638da5cb5b1461018a578063a6f2ae3a146101ac576100c2565b80630f8d7b11146100c75780631aaf5f61146100f257806338164c1e146101075780634b8e1eb0146101295780634e71d92d1461014b57806353e322d614610160575b600080fd5b3480156100d357600080fd5b506100dc61021e565b6040516100e9919061118b565b60405180910390f35b3480156100fe57600080fd5b506100dc6102ec565b34801561011357600080fd5b5061011c6102f2565b6040516100e99190610f75565b34801561013557600080fd5b50610149610144366004610e9e565b6102fb565b005b34801561015757600080fd5b5061014961079e565b34801561016c57600080fd5b506100dc61089d565b34801561018157600080fd5b506101496108a3565b34801561019657600080fd5b5061019f61092c565b6040516100e99190610eec565b61014961093b565b3480156101c057600080fd5b5061019f610ab4565b3480156101d557600080fd5b506101496101e4366004610dc0565b610ac3565b3480156101f557600080fd5b50610149610204366004610dda565b610b83565b34801561021557600080fd5b50610149610c36565b604080518082018252601b81527f53616c653a204e6f206d6f726520746f6b656e20746f2073656c6c0000000000602082015260085491516370a0823160e01b81526000926102e79266013368c1ef20009290916001600160a01b0316906370a0823190610290903090600401610eec565b60206040518083038186803b1580156102a857600080fd5b505afa1580156102bc573d6000803e3d6000fd5b505050506040513d601f19601f820116820180604052508101906102e09190610e86565b9190610d4b565b905090565b60045481565b60035460ff1681565b610303610d7c565b6001600160a01b031661031461092c565b6001600160a01b0316146103435760405162461bcd60e51b815260040161033a906110fc565b60405180910390fd5b6003805460ff19166002179055600061036447670de0b6b3a7640000610d80565b90506000610400600754600a61037a9190611220565b6008546040516370a0823160e01b81526001600160a01b03909116906370a08231906103aa903090600401610eec565b60206040518083038186803b1580156103c257600080fd5b505afa1580156103d6573d6000803e3d6000fd5b505050506040513d601f19601f820116820180604052508101906103fa9190610e86565b90610d80565b90508361040d8284610d80565b106104235761041c8483610d8c565b9050610430565b61042d8185610d80565b91505b6008546009546007546001600160a01b039283169263095ea7b39216906104639061045c90600a611220565b8590610d8c565b6040518363ffffffff1660e01b8152600401610480929190610f00565b602060405180830381600087803b15801561049a57600080fd5b505af11580156104ae573d6000803e3d6000fd5b505050506040513d601f19601f820116820180604052508101906104d29190610e66565b506009546001600160a01b031663f305d7196104f684670de0b6b3a7640000610d8c565b6008546007546001600160a01b039091169061051e9061051790600a611220565b8690610d8c565b61054660646103fa8a610540600754600a6105399190611220565b8b90610d8c565b90610d8c565b61056160646103fa8b6105408c670de0b6b3a7640000610d8c565b61056961092c565b426040518863ffffffff1660e01b815260040161058b96959493929190610f3a565b6060604051808303818588803b1580156105a457600080fd5b505af11580156105b8573d6000803e3d6000fd5b50505050506040513d601f19601f820116820180604052508101906105dd9190610ebf565b50506008546040516370a0823160e01b81526001600160a01b0390911691506370a0823190610610903090600401610eec565b60206040518083038186803b15801561062857600080fd5b505afa15801561063c573d6000803e3d6000fd5b505050506040513d601f19601f820116820180604052508101906106609190610e86565b15610762576008546040516370a0823160e01b81526001600160a01b039091169063a9059cbb9061dead9083906370a08231906106a1903090600401610eec565b60206040518083038186803b1580156106b957600080fd5b505afa1580156106cd573d6000803e3d6000fd5b505050506040513d601f19601f820116820180604052508101906106f19190610e86565b6040518363ffffffff1660e01b815260040161070e929190610f00565b602060405180830381600087803b15801561072857600080fd5b505af115801561073c573d6000803e3d6000fd5b505050506040513d601f19601f820116820180604052508101906107609190610e66565b505b7f736cbe388dddb03fbd423e0d7e9f7430899824650b88b6c7eca0f1669f25450c8282604051610793929190611194565b60405180910390a133ff5b600260035460ff1660028111156107c557634e487b7160e01b600052602160045260246000fd5b146107e25760405162461bcd60e51b815260040161033a906110cd565b600454336000908152600260205260408120549091610800916112ee565b6008546007549192506001600160a01b03169063a9059cbb90339061082a9061045c90600a611220565b6040518363ffffffff1660e01b8152600401610847929190610f00565b602060405180830381600087803b15801561086157600080fd5b505af1158015610875573d6000803e3d6000fd5b505050506040513d601f19601f820116820180604052508101906108999190610e66565b5050565b60055481565b6108ab610d7c565b6001600160a01b03166108bc61092c565b6001600160a01b0316146108e25760405162461bcd60e51b815260040161033a906110fc565b600080546040516001600160a01b03909116907f8be0079c531659141344cd1fd0a4f28419497f9722a3daafe3b4186f6b6457e0908390a3600080546001600160a01b0319169055565b6000546001600160a01b031690565b600160035460ff16600281111561096257634e487b7160e01b600052602160045260246000fd5b1461097f5760405162461bcd60e51b815260040161033a90611131565b33600090815260026020526040902054671bc16d674ec80000906109a4903490610d98565b11156109c25760405162461bcd60e51b815260040161033a9061106d565b6702c68af0bb1400003410156109ea5760405162461bcd60e51b815260040161033a9061109d565b6000610a0d670de0b6b3a76400006103fa60045434610d8c90919063ffffffff16565b9050610a1761021e565b811115610a365760405162461bcd60e51b815260040161033a90611036565b33600090815260026020526040902054610a509034610d98565b336000818152600260205260409020919091556007547f0f41720e667ec1a6364dead7f748567a5b6c13205ac77b74ac7c05a10f017f6091903490610a9a9061045c90600a611220565b604051610aa993929190610f19565b60405180910390a150565b6008546001600160a01b031681565b610acb610d7c565b6001600160a01b0316610adc61092c565b6001600160a01b031614610b025760405162461bcd60e51b815260040161033a906110fc565b6001600160a01b038116610b285760405162461bcd60e51b815260040161033a90610ff0565b600080546040516001600160a01b03808516939216917f8be0079c531659141344cd1fd0a4f28419497f9722a3daafe3b4186f6b6457e091a3600080546001600160a01b0319166001600160a01b0392909216919091179055565b610b8b610d7c565b6001600160a01b0316610b9c61092c565b6001600160a01b031614610bc25760405162461bcd60e51b815260040161033a906110fc565b60005b610100811015610899576001806000848460328110610bf457634e487b7160e01b600052603260045260246000fd5b602090810291909101516001600160a01b03168252810191909152604001600020805460ff191691151591909117905580610c2e8161130d565b915050610bc5565b600060035460ff166002811115610c5d57634e487b7160e01b600052602160045260246000fd5b14610c7a5760405162461bcd60e51b815260040161033a9061115c565b610c82610d7c565b6001600160a01b0316610c9361092c565b6001600160a01b031614610cb95760405162461bcd60e51b815260040161033a906110fc565b6003805460ff191660011790556008546040516370a0823160e01b81526001600160a01b03909116906370a0823190610cf6903090600401610eec565b60206040518083038186803b158015610d0e57600080fd5b505afa158015610d22573d6000803e3d6000fd5b505050506040513d601f19601f82011682018060405250810190610d469190610e86565b600655565b60008184841115610d6f5760405162461bcd60e51b815260040161033a9190610f9d565b50508183035b9392505050565b3390565b6000610d7582846111ba565b6000610d7582846112ee565b6000610d7582846111a2565b80356001600160a01b0381168114610dbb57600080fd5b919050565b600060208284031215610dd1578081fd5b610d7582610da4565b6000610640808385031215610ded578182fd5b83601f840112610dfb578182fd5b60405181810181811067ffffffffffffffff82111715610e1d57610e1d61133e565b6040528084838101871015610e30578485fd5b8493505b6032841015610e5b57610e4681610da4565b82526001939093019260209182019101610e34565b509095945050505050565b600060208284031215610e77578081fd5b81518015158114610d75578182fd5b600060208284031215610e97578081fd5b5051919050565b60008060408385031215610eb0578081fd5b50508035926020909101359150565b600080600060608486031215610ed3578081fd5b8351925060208401519150604084015190509250925092565b6001600160a01b0391909116815260200190565b6001600160a01b03929092168252602082015260400190565b6001600160a01b039390931683526020830191909152604082015260600190565b6001600160a01b039687168152602081019590955260408501939093526060840191909152909216608082015260a081019190915260c00190565b6020810160038310610f9757634e487b7160e01b600052602160045260246000fd5b91905290565b6000602080835283518082850152825b81811015610fc957858101830151858201604001528201610fad565b81811115610fda5783604083870101525b50601f01601f1916929092016040019392505050565b60208082526026908201527f4f776e61626c653a206e6577206f776e657220697320746865207a65726f206160408201526564647265737360d01b606082015260800190565b6020808252601b908201527f53616c653a204e6f7420656e6f75676820746f6b656e206c6566740000000000604082015260600190565b60208082526016908201527514d85b194e8810589bdd99481b585e08185b5bdd5b9d60521b604082015260600190565b60208082526016908201527514d85b194e88155b99195c881b5a5b88185b5bdd5b9d60521b604082015260600190565b60208082526015908201527453616c653a206e6f7420696e20706f737453616c6560581b604082015260600190565b6020808252818101527f4f776e61626c653a2063616c6c6572206973206e6f7420746865206f776e6572604082015260600190565b60208082526011908201527053616c653a206e6f74206f6e676f696e6760781b604082015260600190565b60208082526015908201527414d85b194e88185b1c9958591e481cdd185c9d1959605a1b604082015260600190565b90815260200190565b918252602082015260400190565b600082198211156111b5576111b5611328565b500190565b6000826111d557634e487b7160e01b81526012600452602481fd5b500490565b80825b60018086116111ec5750611217565b8187048211156111fe576111fe611328565b8086161561120b57918102915b9490941c9380026111dd565b94509492505050565b6000610d75600019848460008261123957506001610d75565b8161124657506000610d75565b816001811461125c576002811461126657611293565b6001915050610d75565b60ff84111561127757611277611328565b6001841b91508482111561128d5761128d611328565b50610d75565b5060208310610133831016604e8410600b84101617156112c6575081810a838111156112c1576112c1611328565b610d75565b6112d384848460016111da565b8086048211156112e5576112e5611328565b02949350505050565b600081600019048311821515161561130857611308611328565b500290565b600060001982141561132157611321611328565b5060010190565b634e487b7160e01b600052601160045260246000fd5b634e487b7160e01b600052604160045260246000fdfea2646970667358221220a691a3e3dbb394a81597ca7ce6a7a225abe957240885b3062a8c1c99aca966af64736f6c63430008000033",
    "sourcePath": "/home/drgorilla/Documents/solidity/iBNB-presale/contracts/iBNB-presale.sol",
    "compiler": {
        "name": "solc",
        "version": "0.8.0+commit.c7dfd78e"
    },
    "functionHashes": {
        "addBlockWhitelist(address[50])": "fc64db44",
        "buy()": "a6f2ae3a",
        "claim()": "4e71d92d",
        "concludeAndAddLiquidity(uint256,uint256)": "4b8e1eb0",
        "iBNB_token()": "ebc1ae5f",
        "owner()": "8da5cb5b",
        "presale_token_per_BNB()": "1aaf5f61",
        "public_token_per_BNB()": "53e322d6",
        "renounceOwnership()": "715018a6",
        "sale_status()": "38164c1e",
        "startWhitelistSale()": "ff44e915",
        "tokenLeftForSale()": "0f8d7b11",
        "transferOwnership(address)": "f2fde38b"
    },
    "gasEstimates": {
        "creation": {
            "codeDepositCost": "1000400",
            "executionCost": "infinite",
            "totalCost": "infinite"
        },
        "external": {
            "addBlockWhitelist(address[50])": "infinite",
            "buy()": "infinite",
            "claim()": "infinite",
            "concludeAndAddLiquidity(uint256,uint256)": "infinite",
            "iBNB_token()": "1092",
            "owner()": "1115",
            "presale_token_per_BNB()": "1051",
            "public_token_per_BNB()": "1139",
            "renounceOwnership()": "24278",
            "sale_status()": "1105",
            "startWhitelistSale()": "infinite",
            "tokenLeftForSale()": "infinite",
            "transferOwnership(address)": "24534"
        }
    }
}