{
  "contractName": "iBNB",
  "abi": [
    {
      "inputs": [
        {
          "internalType": "address",
          "name": "_router",
          "type": "address"
        },
        {
          "internalType": "address",
          "name": "_devWallet",
          "type": "address"
        }
      ],
      "stateMutability": "nonpayable",
      "type": "constructor"
    },
    {
      "anonymous": false,
      "inputs": [
        {
          "indexed": false,
          "internalType": "string",
          "name": "",
          "type": "string"
        }
      ],
      "name": "AddLiq",
      "type": "event"
    },
    {
      "anonymous": false,
      "inputs": [
        {
          "indexed": false,
          "internalType": "address",
          "name": "",
          "type": "address"
        },
        {
          "indexed": false,
          "internalType": "address",
          "name": "",
          "type": "address"
        },
        {
          "indexed": false,
          "internalType": "uint256",
          "name": "",
          "type": "uint256"
        }
      ],
      "name": "Approval",
      "type": "event"
    },
    {
      "anonymous": false,
      "inputs": [
        {
          "indexed": false,
          "internalType": "uint256",
          "name": "",
          "type": "uint256"
        },
        {
          "indexed": false,
          "internalType": "uint256",
          "name": "",
          "type": "uint256"
        }
      ],
      "name": "BalancerPools",
      "type": "event"
    },
    {
      "anonymous": false,
      "inputs": [
        {
          "indexed": true,
          "internalType": "address",
          "name": "previousOwner",
          "type": "address"
        },
        {
          "indexed": true,
          "internalType": "address",
          "name": "newOwner",
          "type": "address"
        }
      ],
      "name": "OwnershipTransferred",
      "type": "event"
    },
    {
      "anonymous": false,
      "inputs": [],
      "name": "RewardTaxChanged",
      "type": "event"
    },
    {
      "anonymous": false,
      "inputs": [
        {
          "indexed": false,
          "internalType": "string",
          "name": "",
          "type": "string"
        }
      ],
      "name": "SwapForBNB",
      "type": "event"
    },
    {
      "anonymous": false,
      "inputs": [],
      "name": "TaxRatesChanged",
      "type": "event"
    },
    {
      "anonymous": false,
      "inputs": [
        {
          "indexed": false,
          "internalType": "address",
          "name": "",
          "type": "address"
        },
        {
          "indexed": false,
          "internalType": "address",
          "name": "",
          "type": "address"
        },
        {
          "indexed": false,
          "internalType": "uint256",
          "name": "",
          "type": "uint256"
        }
      ],
      "name": "Transfer",
      "type": "event"
    },
    {
      "anonymous": false,
      "inputs": [
        {
          "indexed": false,
          "internalType": "uint256",
          "name": "",
          "type": "uint256"
        },
        {
          "indexed": false,
          "internalType": "uint256",
          "name": "",
          "type": "uint256"
        }
      ],
      "name": "balancerReset",
      "type": "event"
    },
    {
      "inputs": [],
      "name": "LP_recipient",
      "outputs": [
        {
          "internalType": "address",
          "name": "",
          "type": "address"
        }
      ],
      "stateMutability": "view",
      "type": "function"
    },
    {
      "inputs": [],
      "name": "circuit_breaker",
      "outputs": [
        {
          "internalType": "bool",
          "name": "",
          "type": "bool"
        }
      ],
      "stateMutability": "view",
      "type": "function"
    },
    {
      "inputs": [
        {
          "internalType": "uint256",
          "name": "",
          "type": "uint256"
        }
      ],
      "name": "claiming_taxes_rates",
      "outputs": [
        {
          "internalType": "uint8",
          "name": "",
          "type": "uint8"
        }
      ],
      "stateMutability": "view",
      "type": "function"
    },
    {
      "inputs": [],
      "name": "devWallet",
      "outputs": [
        {
          "internalType": "address",
          "name": "",
          "type": "address"
        }
      ],
      "stateMutability": "view",
      "type": "function"
    },
    {
      "inputs": [],
      "name": "owner",
      "outputs": [
        {
          "internalType": "address",
          "name": "",
          "type": "address"
        }
      ],
      "stateMutability": "view",
      "type": "function"
    },
    {
      "inputs": [],
      "name": "pair",
      "outputs": [
        {
          "internalType": "contract IUniswapV2Pair",
          "name": "",
          "type": "address"
        }
      ],
      "stateMutability": "view",
      "type": "function"
    },
    {
      "inputs": [],
      "name": "pcs_pool_to_circ_ratio",
      "outputs": [
        {
          "internalType": "uint8",
          "name": "",
          "type": "uint8"
        }
      ],
      "stateMutability": "view",
      "type": "function"
    },
    {
      "inputs": [],
      "name": "renounceOwnership",
      "outputs": [],
      "stateMutability": "nonpayable",
      "type": "function"
    },
    {
      "inputs": [],
      "name": "reward_rate",
      "outputs": [
        {
          "internalType": "uint32",
          "name": "",
          "type": "uint32"
        }
      ],
      "stateMutability": "view",
      "type": "function"
    },
    {
      "inputs": [],
      "name": "router",
      "outputs": [
        {
          "internalType": "contract IUniswapV2Router02",
          "name": "",
          "type": "address"
        }
      ],
      "stateMutability": "view",
      "type": "function"
    },
    {
      "inputs": [
        {
          "internalType": "uint256",
          "name": "",
          "type": "uint256"
        }
      ],
      "name": "selling_taxes_rates",
      "outputs": [
        {
          "internalType": "uint8",
          "name": "",
          "type": "uint8"
        }
      ],
      "stateMutability": "view",
      "type": "function"
    },
    {
      "inputs": [
        {
          "internalType": "uint256",
          "name": "",
          "type": "uint256"
        }
      ],
      "name": "selling_taxes_tranches",
      "outputs": [
        {
          "internalType": "uint16",
          "name": "",
          "type": "uint16"
        }
      ],
      "stateMutability": "view",
      "type": "function"
    },
    {
      "inputs": [],
      "name": "swap_for_liquidity_threshold",
      "outputs": [
        {
          "internalType": "uint256",
          "name": "",
          "type": "uint256"
        }
      ],
      "stateMutability": "view",
      "type": "function"
    },
    {
      "inputs": [],
      "name": "swap_for_reward_threshold",
      "outputs": [
        {
          "internalType": "uint256",
          "name": "",
          "type": "uint256"
        }
      ],
      "stateMutability": "view",
      "type": "function"
    },
    {
      "inputs": [
        {
          "internalType": "address",
          "name": "newOwner",
          "type": "address"
        }
      ],
      "name": "transferOwnership",
      "outputs": [],
      "stateMutability": "nonpayable",
      "type": "function"
    },
    {
      "stateMutability": "payable",
      "type": "receive"
    },
    {
      "inputs": [],
      "name": "decimals",
      "outputs": [
        {
          "internalType": "uint256",
          "name": "",
          "type": "uint256"
        }
      ],
      "stateMutability": "view",
      "type": "function"
    },
    {
      "inputs": [],
      "name": "name",
      "outputs": [
        {
          "internalType": "string",
          "name": "",
          "type": "string"
        }
      ],
      "stateMutability": "view",
      "type": "function"
    },
    {
      "inputs": [],
      "name": "symbol",
      "outputs": [
        {
          "internalType": "string",
          "name": "",
          "type": "string"
        }
      ],
      "stateMutability": "view",
      "type": "function"
    },
    {
      "inputs": [],
      "name": "totalSupply",
      "outputs": [
        {
          "internalType": "uint256",
          "name": "",
          "type": "uint256"
        }
      ],
      "stateMutability": "view",
      "type": "function"
    },
    {
      "inputs": [
        {
          "internalType": "address",
          "name": "account",
          "type": "address"
        }
      ],
      "name": "balanceOf",
      "outputs": [
        {
          "internalType": "uint256",
          "name": "",
          "type": "uint256"
        }
      ],
      "stateMutability": "view",
      "type": "function"
    },
    {
      "inputs": [
        {
          "internalType": "address",
          "name": "recipient",
          "type": "address"
        },
        {
          "internalType": "uint256",
          "name": "amount",
          "type": "uint256"
        }
      ],
      "name": "transfer",
      "outputs": [
        {
          "internalType": "bool",
          "name": "",
          "type": "bool"
        }
      ],
      "stateMutability": "nonpayable",
      "type": "function"
    },
    {
      "inputs": [
        {
          "internalType": "address",
          "name": "owner",
          "type": "address"
        },
        {
          "internalType": "address",
          "name": "spender",
          "type": "address"
        }
      ],
      "name": "allowance",
      "outputs": [
        {
          "internalType": "uint256",
          "name": "",
          "type": "uint256"
        }
      ],
      "stateMutability": "view",
      "type": "function"
    },
    {
      "inputs": [
        {
          "internalType": "address",
          "name": "spender",
          "type": "address"
        },
        {
          "internalType": "uint256",
          "name": "amount",
          "type": "uint256"
        }
      ],
      "name": "approve",
      "outputs": [
        {
          "internalType": "bool",
          "name": "",
          "type": "bool"
        }
      ],
      "stateMutability": "nonpayable",
      "type": "function"
    },
    {
      "inputs": [
        {
          "internalType": "address",
          "name": "sender",
          "type": "address"
        },
        {
          "internalType": "address",
          "name": "recipient",
          "type": "address"
        },
        {
          "internalType": "uint256",
          "name": "amount",
          "type": "uint256"
        }
      ],
      "name": "transferFrom",
      "outputs": [
        {
          "internalType": "bool",
          "name": "",
          "type": "bool"
        }
      ],
      "stateMutability": "nonpayable",
      "type": "function"
    },
    {
      "inputs": [
        {
          "internalType": "address",
          "name": "spender",
          "type": "address"
        },
        {
          "internalType": "uint256",
          "name": "addedValue",
          "type": "uint256"
        }
      ],
      "name": "increaseAllowance",
      "outputs": [
        {
          "internalType": "bool",
          "name": "",
          "type": "bool"
        }
      ],
      "stateMutability": "nonpayable",
      "type": "function"
    },
    {
      "inputs": [
        {
          "internalType": "address",
          "name": "spender",
          "type": "address"
        },
        {
          "internalType": "uint256",
          "name": "subtractedValue",
          "type": "uint256"
        }
      ],
      "name": "decreaseAllowance",
      "outputs": [
        {
          "internalType": "bool",
          "name": "",
          "type": "bool"
        }
      ],
      "stateMutability": "nonpayable",
      "type": "function"
    },
    {
      "inputs": [],
      "name": "computeReward",
      "outputs": [
        {
          "internalType": "uint256",
          "name": "",
          "type": "uint256"
        },
        {
          "internalType": "uint256",
          "name": "tax_to_pay",
          "type": "uint256"
        }
      ],
      "stateMutability": "view",
      "type": "function"
    },
    {
      "inputs": [],
      "name": "endOfPeriod",
      "outputs": [
        {
          "internalType": "uint256",
          "name": "",
          "type": "uint256"
        }
      ],
      "stateMutability": "view",
      "type": "function"
    },
    {
      "inputs": [],
      "name": "claimReward",
      "outputs": [],
      "stateMutability": "nonpayable",
      "type": "function"
    },
    {
      "inputs": [
        {
          "internalType": "address",
          "name": "adr",
          "type": "address"
        }
      ],
      "name": "excludeFromTaxes",
      "outputs": [],
      "stateMutability": "nonpayable",
      "type": "function"
    },
    {
      "inputs": [
        {
          "internalType": "address",
          "name": "adr",
          "type": "address"
        }
      ],
      "name": "includeInTaxes",
      "outputs": [],
      "stateMutability": "nonpayable",
      "type": "function"
    },
    {
      "inputs": [
        {
          "internalType": "address",
          "name": "adr",
          "type": "address"
        }
      ],
      "name": "isExcluded",
      "outputs": [
        {
          "internalType": "bool",
          "name": "",
          "type": "bool"
        }
      ],
      "stateMutability": "view",
      "type": "function"
    },
    {
      "inputs": [],
      "name": "resetBalancer",
      "outputs": [],
      "stateMutability": "nonpayable",
      "type": "function"
    },
    {
      "inputs": [
        {
          "internalType": "bool",
          "name": "status",
          "type": "bool"
        }
      ],
      "name": "setCircuitBreaker",
      "outputs": [],
      "stateMutability": "nonpayable",
      "type": "function"
    },
    {
      "inputs": [
        {
          "internalType": "address",
          "name": "_LP_recipient",
          "type": "address"
        }
      ],
      "name": "setLPRecipient",
      "outputs": [],
      "stateMutability": "nonpayable",
      "type": "function"
    },
    {
      "inputs": [
        {
          "internalType": "address",
          "name": "_devWallet",
          "type": "address"
        }
      ],
      "name": "setDevWallet",
      "outputs": [],
      "stateMutability": "nonpayable",
      "type": "function"
    },
    {
      "inputs": [
        {
          "internalType": "uint128",
          "name": "threshold_in_token",
          "type": "uint128"
        }
      ],
      "name": "setSwapFor_Liq_Threshold",
      "outputs": [],
      "stateMutability": "nonpayable",
      "type": "function"
    },
    {
      "inputs": [
        {
          "internalType": "uint128",
          "name": "threshold_in_token",
          "type": "uint128"
        }
      ],
      "name": "setSwapFor_Reward_Threshold",
      "outputs": [],
      "stateMutability": "nonpayable",
      "type": "function"
    },
    {
      "inputs": [
        {
          "internalType": "uint16[5]",
          "name": "new_tranches",
          "type": "uint16[5]"
        }
      ],
      "name": "setSellingTaxesTranches",
      "outputs": [],
      "stateMutability": "nonpayable",
      "type": "function"
    },
    {
      "inputs": [
        {
          "internalType": "uint8[4]",
          "name": "new_amounts",
          "type": "uint8[4]"
        }
      ],
      "name": "setSellingTaxesrates",
      "outputs": [],
      "stateMutability": "nonpayable",
      "type": "function"
    },
    {
      "inputs": [
        {
          "internalType": "uint8[5]",
          "name": "new_tranches",
          "type": "uint8[5]"
        }
      ],
      "name": "setRewardTaxesTranches",
      "outputs": [],
      "stateMutability": "nonpayable",
      "type": "function"
    },
    {
      "inputs": [
        {
          "internalType": "uint32",
          "name": "new_periodicity",
          "type": "uint32"
        }
      ],
      "name": "setRewardRate",
      "outputs": [],
      "stateMutability": "nonpayable",
      "type": "function"
    }
  ],
  "bytecode": "0x608060405260058054600960ff199091161761ff001916610a001765ffffffff0000191664015180000017908190556200003e9060ff16600a6200071d565b620000519066038d7ea4c6800062000808565b600655600554620000679060ff16600a6200071d565b62000079906509184e72a00062000808565b6007556005546200008f9060ff16600a6200071d565b620000a1906509184e72a00062000808565b600890815560408051608081018252600281526004602082018190526006928201929092526060810192909252620000dc9160099162000487565b506040805160a081018252600281526004602082015260069181019190915260086060820152600f60808201526200011990600a90600562000487565b506040805160a081018252607d815260fa60208201526101f4918101919091526102ee60608201526103e860808201526200015990600b90600562000521565b506040805180820190915260048082526334a1272160e11b60209092019182526200018791600d91620005aa565b506040805180820190915260048082526334a1272160e11b6020909201918252620001b591600e91620005aa565b50348015620001c357600080fd5b506040516200390238038062003902833981016040819052620001e6916200067f565b6000620001f262000483565b600080546001600160a01b0319166001600160a01b0383169081178255604051929350917f8be0079c531659141344cd1fd0a4f28419497f9722a3daafe3b4186f6b6457e0908290a35060065433600090815260016020908152604080832093909355601280546001600160a01b0319166001600160a01b038781169190911791829055845163c45a015560e01b81529451939491169263c45a015592600480840193919291829003018186803b158015620002ad57600080fd5b505afa158015620002c2573d6000803e3d6000fd5b505050506040513d601f19601f82011682018060405250810190620002e891906200065b565b9050806001600160a01b031663c9c6539630601260009054906101000a90046001600160a01b03166001600160a01b031663ad5c46486040518163ffffffff1660e01b815260040160206040518083038186803b1580156200034957600080fd5b505afa1580156200035e573d6000803e3d6000fd5b505050506040513d601f19601f820116820180604052508101906200038491906200065b565b6040518363ffffffff1660e01b8152600401620003a3929190620006b6565b602060405180830381600087803b158015620003be57600080fd5b505af1158015620003d3573d6000803e3d6000fd5b505050506040513d601f19601f82011682018060405250810190620003f991906200065b565b601180546001600160a01b03199081166001600160a01b0393841617909155600f8054821690556010805490911693821693909317835533600090815260046020526040808220805460ff19908116600190811790925530845282842080548216831790559554909316825290208054841682179055600c805490931617909155506200087d9050565b3390565b6001830191839082156200050f5791602002820160005b83821115620004de57835183826101000a81548160ff021916908360ff16021790555092602001926001016020816000010492830192600103026200049e565b80156200050d5782816101000a81549060ff0219169055600101602081600001049283019260010302620004de565b505b506200051d92915062000627565b5090565b6001830191839082156200050f5791602002820160005b838211156200057a57835183826101000a81548161ffff021916908361ffff160217905550926020019260020160208160010104928301926001030262000538565b80156200050d5782816101000a81549061ffff02191690556002016020816001010492830192600103026200057a565b828054620005b8906200082a565b90600052602060002090601f016020900481019282620005dc57600085556200050f565b82601f10620005f757805160ff19168380011785556200050f565b828001600101855582156200050f579182015b828111156200050f5782518255916020019190600101906200060a565b5b808211156200051d576000815560010162000628565b80516001600160a01b03811681146200065657600080fd5b919050565b6000602082840312156200066d578081fd5b62000678826200063e565b9392505050565b6000806040838503121562000692578081fd5b6200069d836200063e565b9150620006ad602084016200063e565b90509250929050565b6001600160a01b0392831681529116602082015260400190565b80825b6001808611620006e4575062000714565b818704821115620006f957620006f962000867565b808616156200070757918102915b9490941c938002620006d3565b94509492505050565b60006200067860001960ff8516846000826200073c5750600162000678565b816200074b5750600062000678565b81600181146200076457600281146200076f57620007a3565b600191505062000678565b60ff84111562000783576200078362000867565b6001841b9150848211156200079c576200079c62000867565b5062000678565b5060208310610133831016604e8410600b8410161715620007db575081810a83811115620007d557620007d562000867565b62000678565b620007ea8484846001620006d0565b808604821115620007ff57620007ff62000867565b02949350505050565b600081600019048311821515161562000825576200082562000867565b500290565b6002810460018216806200083f57607f821691505b602082108114156200086157634e487b7160e01b600052602260045260246000fd5b50919050565b634e487b7160e01b600052601160045260246000fd5b613075806200088d6000396000f3fe6080604052600436106102555760003560e01c80638ac6e33a11610139578063b88a802f116100b6578063e0e283361161007a578063e0e2833614610697578063ed995c60146106ba578063f22b1084146106da578063f2fde38b146106fa578063f887ea401461071a578063fb3fbc121461072f5761025c565b8063b88a802f14610602578063ca882eda14610617578063cba0e99614610637578063d9a86cdf14610657578063dd62ed3e146106775761025c565b8063983e9158116100fd578063983e91581461056b5780639e0ffbce1461058b578063a457c2d7146105ad578063a8aa1b31146105cd578063a9059cbb146105e25761025c565b80638ac6e33a146104f75780638da5cb5b146105175780638ea5220f1461052c57806395d89b4114610541578063961a31ce146105565761025c565b80631f53ac02116101d257806333a464701161019657806333a464701461044d578063395093511461046d578063425064491461048d57806367250b59146104ad57806370a08231146104c2578063715018a6146104e25761025c565b80631f53ac02146103c1578063222b03f6146103e157806323b872dd146103f6578063313ce5671461041657806332fb782b1461042b5761025c565b8063131e00b711610219578063131e00b71461032a57806313a55aa51461034a57806316e6fa101461036a57806318160ddd146103975780631e776cbf146103ac5761025c565b806301faf61a146102615780630281d18e1461028357806306fdde03146102b9578063095ea7b3146102db5780630ce6bb6f146103085761025c565b3661025c57005b600080fd5b34801561026d57600080fd5b5061028161027c3660046127da565b610744565b005b34801561028f57600080fd5b506102a361029e366004612795565b6107b0565b6040516102b09190612ce0565b60405180910390f35b3480156102c557600080fd5b506102ce6107da565b6040516102b09190612890565b3480156102e757600080fd5b506102fb6102f63660046125a1565b61086d565b6040516102b09190612885565b34801561031457600080fd5b5061031d61088b565b6040516102b09190612c48565b34801561033657600080fd5b506102816103453660046124f1565b610891565b34801561035657600080fd5b506102816103653660046126a5565b61092d565b34801561037657600080fd5b5061038a610385366004612795565b6109a6565b6040516102b09190612c39565b3480156103a357600080fd5b5061031d6109d4565b3480156103b857600080fd5b506102a36109da565b3480156103cd57600080fd5b506102816103dc3660046124f1565b6109e8565b3480156103ed57600080fd5b5061031d610a49565b34801561040257600080fd5b506102fb610411366004612561565b610a4f565b34801561042257600080fd5b5061031d610ae8565b34801561043757600080fd5b50610440610af1565b6040516102b09190612812565b34801561045957600080fd5b5061028161046836600461276e565b610b00565b34801561047957600080fd5b506102fb6104883660046125a1565b610b69565b34801561049957600080fd5b506102816104a8366004612708565b610bb8565b3480156104b957600080fd5b50610281610c0a565b3480156104ce57600080fd5b5061031d6104dd3660046124f1565b610cb4565b3480156104ee57600080fd5b50610281610cd3565b34801561050357600080fd5b5061028161051236600461276e565b610d5c565b34801561052357600080fd5b50610440610dc5565b34801561053857600080fd5b50610440610dd4565b34801561054d57600080fd5b506102ce610de3565b34801561056257600080fd5b5061031d610df2565b34801561057757600080fd5b506102816105863660046124f1565b610e26565b34801561059757600080fd5b506105a0610ebe565b6040516102b09190612ccf565b3480156105b957600080fd5b506102fb6105c83660046125a1565b610ed0565b3480156105d957600080fd5b50610440610f4b565b3480156105ee57600080fd5b506102fb6105fd3660046125a1565b610f5a565b34801561060e57600080fd5b50610281610f6e565b34801561062357600080fd5b506102816106323660046125cc565b610fe8565b34801561064357600080fd5b506102fb6106523660046124f1565b611061565b34801561066357600080fd5b50610281610672366004612642565b61107f565b34801561068357600080fd5b5061031d610692366004612529565b6110cb565b3480156106a357600080fd5b506106ac6110f6565b6040516102b0929190612cc1565b3480156106c657600080fd5b506102816106d53660046124f1565b61125a565b3480156106e657600080fd5b506102a36106f5366004612795565b6112bb565b34801561070657600080fd5b506102816107153660046124f1565b6112cb565b34801561072657600080fd5b5061044061138b565b34801561073b57600080fd5b506102fb61139a565b61074c6113a3565b6001600160a01b031661075d610dc5565b6001600160a01b03161461078c5760405162461bcd60e51b815260040161078390612a46565b60405180910390fd5b6005805463ffffffff909216620100000265ffffffff000019909216919091179055565b600981600481106107c057600080fd5b60209182820401919006915054906101000a900460ff1681565b6060600d80546107e990612ecf565b80601f016020809104026020016040519081016040528092919081815260200182805461081590612ecf565b80156108625780601f1061083757610100808354040283529160200191610862565b820191906000526020600020905b81548152906001019060200180831161084557829003601f168201915b505050505090505b90565b600061088161087a6113a3565b84846113a7565b5060015b92915050565b60085481565b6108996113a3565b6001600160a01b03166108aa610dc5565b6001600160a01b0316146108d05760405162461bcd60e51b815260040161078390612a46565b6001600160a01b03811660009081526004602052604090205460ff16156109095760405162461bcd60e51b815260040161078390612bca565b6001600160a01b03166000908152600460205260409020805460ff19166001179055565b6109356113a3565b6001600160a01b0316610946610dc5565b6001600160a01b03161461096c5760405162461bcd60e51b815260040161078390612a46565b610979600a82600561239d565b506040517ffa718b2e3c4eff6c1ad7f30d8799d768c9c9c172a31e28102f58e23bdf2550c790600090a150565b600b81600581106109b657600080fd5b60109182820401919006600202915054906101000a900461ffff1681565b60065490565b600554610100900460ff1681565b6109f06113a3565b6001600160a01b0316610a01610dc5565b6001600160a01b031614610a275760405162461bcd60e51b815260040161078390612a46565b601080546001600160a01b0319166001600160a01b0392909216919091179055565b60075481565b6000610a5c84848461145c565b6001600160a01b038416600090815260036020526040812081610a7d6113a3565b6001600160a01b03166001600160a01b0316815260200190815260200160002054905082811015610ac05760405162461bcd60e51b8152600401610783906129fe565b610adb85610acc6113a3565b610ad68685612e88565b6113a7565b60019150505b9392505050565b60055460ff1690565b600f546001600160a01b031681565b610b086113a3565b6001600160a01b0316610b19610dc5565b6001600160a01b031614610b3f5760405162461bcd60e51b815260040161078390612a46565b600554610b509060ff16600a612d98565b610b63906001600160801b038316612e69565b60085550565b6000610881610b766113a3565b848460036000610b846113a3565b6001600160a01b03908116825260208083019390935260409182016000908120918b1681529252902054610ad69190612d26565b610bc06113a3565b6001600160a01b0316610bd1610dc5565b6001600160a01b031614610bf75760405162461bcd60e51b815260040161078390612a46565b600c805460ff1916911515919091179055565b610c126113a3565b6001600160a01b0316610c23610dc5565b6001600160a01b031614610c495760405162461bcd60e51b815260040161078390612a46565b30600090815260016020526040902054610c6481600261182c565b601355610c7281600261182c565b60148190556013546040517feac7c420776212140a54f51e3179e218232d622b4fa6556ab2ef0b973c0f5ab092610ca99291612cc1565b60405180910390a150565b6001600160a01b0381166000908152600160205260409020545b919050565b610cdb6113a3565b6001600160a01b0316610cec610dc5565b6001600160a01b031614610d125760405162461bcd60e51b815260040161078390612a46565b600080546040516001600160a01b03909116907f8be0079c531659141344cd1fd0a4f28419497f9722a3daafe3b4186f6b6457e0908390a3600080546001600160a01b0319169055565b610d646113a3565b6001600160a01b0316610d75610dc5565b6001600160a01b031614610d9b5760405162461bcd60e51b815260040161078390612a46565b600554610dac9060ff16600a612d98565b610dbf906001600160801b038316612e69565b60075550565b6000546001600160a01b031690565b6010546001600160a01b031681565b6060600e80546107e990612ecf565b600554336000908152600260208190526040822001549091610e21916201000090910463ffffffff1690612d26565b905090565b610e2e6113a3565b6001600160a01b0316610e3f610dc5565b6001600160a01b031614610e655760405162461bcd60e51b815260040161078390612a46565b6001600160a01b03811660009081526004602052604090205460ff16610e9d5760405162461bcd60e51b8152600401610783906129d7565b6001600160a01b03166000908152600460205260409020805460ff19169055565b60055462010000900463ffffffff1681565b60008060036000610edf6113a3565b6001600160a01b0390811682526020808301939093526040918201600090812091881681529252902054905082811015610f2b5760405162461bcd60e51b815260040161078390612bf4565b610f41610f366113a3565b85610ad68685612e88565b5060019392505050565b6011546001600160a01b031681565b6000610881610f676113a3565b848461145c565b600080610f796110f6565b9150915060008211610f9d5760405162461bcd60e51b8152600401610783906129b5565b33600081815260026020819052604091829020429101555160008051602061302083398151915291610fd29130908590612826565b60405180910390a1610fe43383611838565b5050565b610ff06113a3565b6001600160a01b0316611001610dc5565b6001600160a01b0316146110275760405162461bcd60e51b815260040161078390612a46565b611034600b826005612430565b506040517f3aaf767b2e63f4c5f274684ce36da44af23d293465914ee94908682af41e652790600090a150565b6001600160a01b031660009081526004602052604090205460ff1690565b6110876113a3565b6001600160a01b0316611098610dc5565b6001600160a01b0316146110be5760405162461bcd60e51b815260040161078390612a46565b611034600982600461239d565b6001600160a01b03918216600090815260036020908152604080832093909416825291909152205490565b3360009081526002602081815260408084208151606081018352815481526001820154938101939093529092015491810182905260055483924291611148916201000090910463ffffffff1690612d26565b111561115b576000809250925050611256565b6011546001600160a01b031660009081526001602052604081205461dead8083527fb34209a263f6c38fe55f099e9e70f9d67e93982480ff3234a5e0108028ad164d549092916111b5916111af90816109d4565b906118ca565b90506000600560029054906101000a900463ffffffff1663ffffffff168460200151426111e29190612e88565b6111ec9190612f0a565b336000908152600160205260408120549192509061121690479061121090856118d6565b906118d6565b9050600061122784620151806118d6565b90506000611235838361182c565b9050611240816118e2565b975061124c81896118ca565b9850505050505050505b9091565b6112626113a3565b6001600160a01b0316611273610dc5565b6001600160a01b0316146112995760405162461bcd60e51b815260040161078390612a46565b600f80546001600160a01b0319166001600160a01b0392909216919091179055565b600a81600581106107c057600080fd5b6112d36113a3565b6001600160a01b03166112e4610dc5565b6001600160a01b03161461130a5760405162461bcd60e51b815260040161078390612a46565b6001600160a01b0381166113305760405162461bcd60e51b8152600401610783906128c3565b600080546040516001600160a01b03808516939216917f8be0079c531659141344cd1fd0a4f28419497f9722a3daafe3b4186f6b6457e091a3600080546001600160a01b0319166001600160a01b0392909216919091179055565b6012546001600160a01b031681565b600c5460ff1681565b3390565b6001600160a01b0383166113cd5760405162461bcd60e51b815260040161078390612b43565b6001600160a01b0382166113f35760405162461bcd60e51b815260040161078390612909565b6001600160a01b0380841660009081526003602090815260408083209386168352929052819020829055517f8c5be1e5ebec7d5bd14f71427d1e84f3dd0314c0f7b2291e5b200ac8c7c3b9259061144f90859085908590612826565b60405180910390a1505050565b6001600160a01b0383166114825760405162461bcd60e51b815260040161078390612ab2565b6001600160a01b038316600090815260016020526040902054818110156114bb5760405162461bcd60e51b81526004016107839061294b565b6001600160a01b0384166000908152600460205260408120548190819060ff1615801561150157506001600160a01b03861660009081526004602052604090205460ff16155b80156115105750600c5460ff16155b156116f357600080601160009054906101000a90046001600160a01b03166001600160a01b0316630902f1ac6040518163ffffffff1660e01b815260040160606040518083038186803b15801561156657600080fd5b505afa15801561157a573d6000803e3d6000fd5b505050506040513d601f19601f8201168201806040525081019061159e9190612728565b5091509150601160009054906101000a90046001600160a01b03166001600160a01b0316630dfe16816040518163ffffffff1660e01b815260040160206040518083038186803b1580156115f157600080fd5b505afa158015611605573d6000803e3d6000fd5b505050506040513d601f19601f82011682018060405250810190611629919061250d565b6001600160a01b0316306001600160a01b03161461164357905b6116578988846001600160701b03166119b0565b9450611665876103e861182c565b935061167e6103e86116788960636118d6565b9061182c565b925061169383836001600160701b0316611bea565b61169d8584611dc0565b30600090815260016020526040812080549091906116bc908490612d26565b90915550506010546001600160a01b0316600090815260016020526040812080548692906116eb908490612d26565b909155505050505b6001600160a01b03861660009081526002602052604090204260019091015561171c84866118ca565b6001600160a01b038816600090815260016020526040902055611745816111af848189886118ca565b6001600160a01b0387166000908152600160205260408120805490919061176d908490612d26565b90915550506040516000805160206130208339815191529061179490899089908990612826565b60405180910390a16000805160206130208339815191528730856040516117bd93929190612826565b60405180910390a16000805160206130208339815191528730836040516117e693929190612826565b60405180910390a16010546040516000805160206130208339815191529161181b918a916001600160a01b0316908690612826565b60405180910390a150505050505050565b6000610ae18284612d3e565b604080516000808252602082019092526001600160a01b03841690839060405161186291906127f6565b60006040518083038185875af1925050503d806000811461189f576040519150601f19603f3d011682016040523d82523d6000602084013e6118a4565b606091505b50509050806118c55760405162461bcd60e51b815260040161078390612b87565b505050565b6000610ae18284612e88565b6000610ae18284612e69565b6000671bc16d674ec800008211156119245761191d6064611678600a60045b6020810491909101548691601f166101000a900460ff166118d6565b9050610cce565b6714d1120d7b1600008211156119455761191d6064611678600a6003611901565b670de0b6b3a76400008211156119665761191d6064611678600a6002611901565b6706f05b59d3b200008211156119875761191d6064611678600a6001611901565b6703782dace9d900008211156119a85761191d6064611678600a6000611901565b506000610cce565b6040805160a0810191829052600091829190600b906005908285855b82829054906101000a900461ffff1661ffff16815260200190600201906020826001010492830192600103820291508084116119cc57505050506001600160a01b038816600090815260026020818152604092839020835160608101855281548152600182015492810183905292015492820192909252939450611a569250905062015180612d26565b421115611a77576001600160a01b0386166000908152600260205260408120555b6001600160a01b038616600090815260026020526040812054611a9b908790611dc0565b9050611aba6127106116788560045b6020020151889061ffff166118d6565b811115611ad95760405162461bcd60e51b815260040161078390612a7b565b611aea612710611678856003611aaa565b811115611b2157611b1a6064611678600960035b6020810491909101548a91601f166101000a900460ff166118d6565b9350611ba1565b611b32612710611678856002611aaa565b811115611b4a57611b1a606461167860096002611afe565b611b5b612710611678856001611aaa565b811115611b7357611b1a606461167860096001611afe565b611b84612710611678856000611aaa565b811115611b9c57611b1a606461167860096000611afe565b600093505b8151611bad9087611dc0565b6001600160a01b03881660009081526002602052604081209190915560138054869290611bdb908490612d26565b90915550505050509392505050565b61dead600081815260016020527fb34209a263f6c38fe55f099e9e70f9d67e93982480ff3234a5e0108028ad164d54611c25906111af6109d4565b600554909150600090606490611c4390610100900460ff1684612e69565b611c4d9190612d3e565b8410611c595783611c7b565b600554606490611c7190610100900460ff1684612e69565b611c7b9190612d3e565b9050611c9f633b9aca00611678838183611210611c98848c6118ca565b8c906118d6565b60148054600090611cb1908490612d26565b90915550611cdc9050633b9aca00611678838183611210611c98611cd5858d6118ca565b89906118ca565b60138054600090611cee908490612d26565b90915550506040805180820190915260135481526014546020820181905260075411611d41576000611d238260200151611dcc565b90508060136001016000828254611d3a9190612e88565b9091555050505b600854815110611d79576000611d5b826000015130612107565b90508060136000016000828254611d729190612e88565b9091555050505b602081015181516040517fb05a5c60182995cbe8b5d64191ecb58d9ece5049b395067659fd414adf97d5fd92611db0929091612cc1565b60405180910390a1505050505050565b6000610ae18284612d26565b6040805160028082526060820183526000924792849290916020830190803683370190505090503081600081518110611e1557634e487b7160e01b600052603260045260246000fd5b6001600160a01b03928316602091820292909201810191909152601254604080516315ab88c960e31b81529051919093169263ad5c4648926004808301939192829003018186803b158015611e6957600080fd5b505afa158015611e7d573d6000803e3d6000fd5b505050506040513d601f19601f82011682018060405250810190611ea1919061250d565b81600181518110611ec257634e487b7160e01b600052603260045260246000fd5b6001600160a01b0392831660209182029290920101526012548591611ee9913091166110cb565b1015611f5f57306000818152600360209081526040808320601280546001600160a01b039081168652919093529281902060001990819055915490517f8c5be1e5ebec7d5bd14f71427d1e84f3dd0314c0f7b2291e5b200ac8c7c3b92594611f5694909392169190612826565b60405180910390a15b6012546001600160a01b031663791ac947611f7b86600261182c565b60008430426040518663ffffffff1660e01b8152600401611fa0959493929190612c51565b600060405180830381600087803b158015611fba57600080fd5b505af1925050508015611fcb575060015b61200f577facabbd54c23d6a523d8111565d14ae729de6bbe5ea4707cb6162c24d4fae03f4604051611ffc90612af7565b60405180910390a1600092505050610cce565b600061201b47846118ca565b6012549091506001600160a01b031663f305d719823061203c89600261182c565b600f546040516001600160e01b031960e087901b16815261207293929160009182916001600160a01b031690429060040161284a565b6060604051808303818588803b15801561208b57600080fd5b505af115801561209f573d6000803e3d6000fd5b50505050506040513d601f19601f820116820180604052508101906120c491906127ad565b5050507facabbd54c23d6a523d8111565d14ae729de6bbe5ea4707cb6162c24d4fae03f46040516120f490612991565b60405180910390a1849350505050610cce565b60408051600280825260608201835260009283929190602083019080368337019050509050308160008151811061214e57634e487b7160e01b600052603260045260246000fd5b6001600160a01b03928316602091820292909201810191909152601254604080516315ab88c960e31b81529051919093169263ad5c4648926004808301939192829003018186803b1580156121a257600080fd5b505afa1580156121b6573d6000803e3d6000fd5b505050506040513d601f19601f820116820180604052508101906121da919061250d565b816001815181106121fb57634e487b7160e01b600052603260045260246000fd5b6001600160a01b0392831660209182029290920101526012548591612222913091166110cb565b101561229857306000818152600360209081526040808320601280546001600160a01b039081168652919093529281902060001990819055915490517f8c5be1e5ebec7d5bd14f71427d1e84f3dd0314c0f7b2291e5b200ac8c7c3b9259461228f94909392169190612826565b60405180910390a15b60125460405163791ac94760e01b81526001600160a01b039091169063791ac947906122d1908790600090869089904290600401612c51565b600060405180830381600087803b1580156122eb57600080fd5b505af19250505080156122fc575060015b61235f57612308612f50565b806123135750612355565b7f63f96232640ee3b5914be68a756c36599d36b83c5f2ca097c9c40afdf6f7fc2d816040516123429190612890565b60405180910390a1600092505050610885565b3d6000803e3d6000fd5b7f63f96232640ee3b5914be68a756c36599d36b83c5f2ca097c9c40afdf6f7fc2d60405161238c90612b1d565b60405180910390a183915050610885565b6001830191839082156124205791602002820160005b838211156123f157835183826101000a81548160ff021916908360ff16021790555092602001926001016020816000010492830192600103026123b3565b801561241e5782816101000a81549060ff02191690556001016020816000010492830192600103026123f1565b505b5061242c9291506124b4565b5090565b6001830191839082156124205791602002820160005b8382111561248657835183826101000a81548161ffff021916908361ffff1602179055509260200192600201602081600101049283019260010302612446565b801561241e5782816101000a81549061ffff0219169055600201602081600101049283019260010302612486565b5b8082111561242c57600081556001016124b5565b80516001600160701b0381168114610cce57600080fd5b803560ff81168114610cce57600080fd5b600060208284031215612502578081fd5b8135610ae181612ff5565b60006020828403121561251e578081fd5b8151610ae181612ff5565b6000806040838503121561253b578081fd5b823561254681612ff5565b9150602083013561255681612ff5565b809150509250929050565b600080600060608486031215612575578081fd5b833561258081612ff5565b9250602084013561259081612ff5565b929592945050506040919091013590565b600080604083850312156125b3578182fd5b82356125be81612ff5565b946020939093013593505050565b600060a082840312156125dd578081fd5b82601f8301126125eb578081fd5b6125f560a0612cee565b80838560a086011115612606578384fd5b835b600581101561263757813561ffff81168114612622578586fd5b84526020938401939190910190600101612608565b509095945050505050565b600060808284031215612653578081fd5b82601f830112612661578081fd5b61266b6080612cee565b80838560808601111561267c578384fd5b835b600481101561263757612690826124e0565b8452602093840193919091019060010161267e565b600060a082840312156126b6578081fd5b82601f8301126126c4578081fd5b6126ce60a0612cee565b80838560a0860111156126df578384fd5b835b6005811015612637576126f3826124e0565b845260209384019391909101906001016126e1565b600060208284031215612719578081fd5b81358015158114610ae1578182fd5b60008060006060848603121561273c578081fd5b612745846124c9565b9250612753602085016124c9565b915060408401516127638161300d565b809150509250925092565b60006020828403121561277f578081fd5b81356001600160801b0381168114610ae1578182fd5b6000602082840312156127a6578081fd5b5035919050565b6000806000606084860312156127c1578081fd5b8351925060208401519150604084015190509250925092565b6000602082840312156127eb578081fd5b8135610ae18161300d565b60008251612808818460208701612e9f565b9190910192915050565b6001600160a01b0391909116815260200190565b6001600160a01b039384168152919092166020820152604081019190915260600190565b6001600160a01b039687168152602081019590955260408501939093526060840191909152909216608082015260a081019190915260c00190565b901515815260200190565b60006020825282518060208401526128af816040850160208701612e9f565b601f01601f19169190910160400192915050565b60208082526026908201527f4f776e61626c653a206e6577206f776e657220697320746865207a65726f206160408201526564647265737360d01b606082015260800190565b60208082526022908201527f45524332303a20617070726f766520746f20746865207a65726f206164647265604082015261737360f01b606082015260800190565b60208082526026908201527f45524332303a207472616e7366657220616d6f756e7420657863656564732062604082015265616c616e636560d01b606082015260800190565b6020808252600a90820152696164644c69713a206f6b60b01b604082015260600190565b6020808252600890820152670436c61696d3a20360c41b604082015260600190565b6020808252600d908201526c185b1c9958591e481d185e1959609a1b604082015260600190565b60208082526028908201527f45524332303a207472616e7366657220616d6f756e74206578636565647320616040820152676c6c6f77616e636560c01b606082015260800190565b6020808252818101527f4f776e61626c653a2063616c6c6572206973206e6f7420746865206f776e6572604082015260600190565b6020808252601d908201527f53656c6c696e67207461783a2061626f7665206d617820616d6f756e74000000604082015260600190565b60208082526025908201527f45524332303a207472616e736665722066726f6d20746865207a65726f206164604082015264647265737360d81b606082015260800190565b6020808252600c908201526b185919131a5c4e8819985a5b60a21b604082015260600190565b6020808252600c908201526b53776170207375636365737360a01b604082015260600190565b60208082526024908201527f45524332303a20617070726f76652066726f6d20746865207a65726f206164646040820152637265737360e01b606082015260800190565b60208082526023908201527f5472616e7366657248656c7065723a204554485f5452414e534645525f46414960408201526213115160ea1b606082015260800190565b60208082526010908201526f185b1c9958591e48195e18db1d59195960821b604082015260600190565b60208082526025908201527f45524332303a2064656372656173656420616c6c6f77616e63652062656c6f77604082015264207a65726f60d81b606082015260800190565b61ffff91909116815260200190565b90815260200190565b600060a082018783526020878185015260a0604085015281875180845260c0860191508289019350845b81811015612ca05784516001600160a01b031683529383019391830191600101612c7b565b50506001600160a01b03969096166060850152505050608001529392505050565b918252602082015260400190565b63ffffffff91909116815260200190565b60ff91909116815260200190565b60405181810167ffffffffffffffff81118282101715612d1e57634e487b7160e01b600052604160045260246000fd5b604052919050565b60008219821115612d3957612d39612f1e565b500190565b600082612d4d57612d4d612f34565b500490565b80825b6001808611612d645750612d8f565b818704821115612d7657612d76612f1e565b80861615612d8357918102915b9490941c938002612d55565b94509492505050565b6000610ae160001960ff851684600082612db457506001610ae1565b81612dc157506000610ae1565b8160018114612dd75760028114612de157612e0e565b6001915050610ae1565b60ff841115612df257612df2612f1e565b6001841b915084821115612e0857612e08612f1e565b50610ae1565b5060208310610133831016604e8410600b8410161715612e41575081810a83811115612e3c57612e3c612f1e565b610ae1565b612e4e8484846001612d52565b808604821115612e6057612e60612f1e565b02949350505050565b6000816000190483118215151615612e8357612e83612f1e565b500290565b600082821015612e9a57612e9a612f1e565b500390565b60005b83811015612eba578181015183820152602001612ea2565b83811115612ec9576000848401525b50505050565b600281046001821680612ee357607f821691505b60208210811415612f0457634e487b7160e01b600052602260045260246000fd5b50919050565b600082612f1957612f19612f34565b500690565b634e487b7160e01b600052601160045260246000fd5b634e487b7160e01b600052601260045260246000fd5b60e01c90565b600060443d1015612f605761086a565b600481823e6308c379a0612f748251612f4a565b14612f7e5761086a565b6040513d600319016004823e80513d67ffffffffffffffff8160248401118184111715612fae575050505061086a565b82840192508251915080821115612fc8575050505061086a565b503d83016020828401011115612fe05750505061086a565b601f01601f1916810160200160405291505090565b6001600160a01b038116811461300a57600080fd5b50565b63ffffffff8116811461300a57600080fdfeddf252ad1be2c89b69c2b068fc378daa952ba7f163c4a11628f55a4df523b3efa264697066735822122011e55eb01646578517580a6c39a826c663a4a63e7f85c392ad3a36c84caa9a8c64736f6c63430008000033",
  "immutableReferences": {},
  "source": "// SPDX-License-Identifier: GPL\n\npragma solidity 0.8.0;\n\nimport \"@openzeppelin/contracts/utils/math/SafeMath.sol\";\nimport \"@openzeppelin/contracts/access/Ownable.sol\";\nimport \"@uniswap/v2-periphery/contracts/interfaces/IUniswapV2Router02.sol\";\nimport \"@uniswap/v2-core/contracts/interfaces/IUniswapV2Factory.sol\";\nimport \"@uniswap/v2-core/contracts/interfaces/IUniswapV2Pair.sol\";\n\n/**\n * @dev iBNB\n *\n * Every tx is subject to:\n * - a sell tax, at fixed tranches (see selling_taxes_tranches and selling_taxes_rates - above the last threshold, th tx revert).\n      the sell tax is applicable on tx to the uni/pancake pool. This tax goes to the reward pool.\n * - 0.1% flat to the team wallet\n * - 9.9% to the balancer (which, in turn, fill 2 internal \"pools\" via the pro_balances struct: reward and liquidity).\n * - a \"check and trigger\" on both liquidity and reward internal pools -> if they have more token than the threshold, swap is triggered\n *   and BNB are stored in the contract (for the reward subpool) or liquidity is added to the uni pool\n *\n * Reward is claimable daily, and is based on the % of the circulating supply (defined as total_supply-dead address balance-pool balance)\n *  owned by the claimer; on the time since the last transfer into owner's wallet module 24; on the BNB balance of the contract :\n *\n *                  reward in BNB = (token owned / circulating supply) * [(current time - last transfer in) % 24] / 1 day * BNB contract balance\n */\n\ncontract iBNB is Ownable {\n    using SafeMath for uint256;\n\n    struct past_tx {\n      uint256 cum_transfer; //this is not what you think, you perv\n      uint256 last_timestamp;\n      uint256 last_claim;\n    }\n\n    struct prop_balances {\n      uint256 reward_pool;\n      uint256 liquidity_pool;\n    }\n\n    mapping (address => uint256) private _balances;\n    mapping (address => past_tx) private _last_tx;\n    mapping (address => mapping (address => uint256)) private _allowances;\n    mapping (address => bool) private excluded;\n\n    uint8 private _decimals = 9;\n    uint8 public pcs_pool_to_circ_ratio = 10;\n\n    uint32 public reward_rate = 1 days;\n\n    uint256 private _totalSupply = 10**15 * 10**_decimals;\n    uint256 public swap_for_liquidity_threshold = 10**13 * 10**_decimals; //1%\n    uint256 public swap_for_reward_threshold = 10**13 * 10**_decimals;\n\n    uint8[4] public selling_taxes_rates = [2, 4, 6, 8];\n    uint8[5] public claiming_taxes_rates = [2, 4, 6, 8, 15];\n    uint16[5] public selling_taxes_tranches = [125, 250, 500, 750, 1000]; // % and div by 10**4 0.0125% -0.025% -(...)\n\n    bool public circuit_breaker;\n\n    string private _name = \"iBNB\";\n    string private _symbol = \"iBNB\";\n\n    address public LP_recipient;\n    address public devWallet;\n\n    IUniswapV2Pair public pair;\n    IUniswapV2Router02 public router;\n\n    prop_balances private balancer_balances;\n\n    event Approval(address, address, uint256);\n    event Transfer(address, address, uint256);\n    event TaxRatesChanged();\n    event SwapForBNB(string);\n    event BalancerPools(uint256,uint256);\n    event RewardTaxChanged();\n    event AddLiq(string);\n    event balancerReset(uint256, uint256);\n\n    constructor (address _router, address _devWallet) {\n\n         _balances[msg.sender] = _totalSupply;\n\n         //create pair to get the pair address\n         router = IUniswapV2Router02(_router);\n         IUniswapV2Factory factory = IUniswapV2Factory(router.factory());\n         pair = IUniswapV2Pair(factory.createPair(address(this), router.WETH()));\n\n         LP_recipient = address(0);\n         devWallet = _devWallet;\n\n         excluded[msg.sender] = true;\n         excluded[address(this)] = true;\n         excluded[devWallet] = true;\n\n         circuit_breaker = true; //ERC20 behavior by default\n    }\n\n    function decimals() public view returns (uint256) {\n         return _decimals;\n    }\n    function name() public view returns (string memory) {\n        return _name;\n    }\n    function symbol() public view returns (string memory) {\n        return _symbol;\n    }\n    function totalSupply() public view virtual  returns (uint256) {\n        return _totalSupply;\n    }\n    function balanceOf(address account) public view virtual  returns (uint256) {\n        return _balances[account];\n    }\n    function transfer(address recipient, uint256 amount) public virtual  returns (bool) {\n        _transfer(_msgSender(), recipient, amount);\n        return true;\n    }\n    function allowance(address owner, address spender) public view virtual  returns (uint256) {\n        return _allowances[owner][spender];\n    }\n    function approve(address spender, uint256 amount) public virtual  returns (bool) {\n        _approve(_msgSender(), spender, amount);\n        return true;\n    }\n    function transferFrom(address sender, address recipient, uint256 amount) public virtual  returns (bool) {\n        _transfer(sender, recipient, amount);\n\n        uint256 currentAllowance = _allowances[sender][_msgSender()];\n        require(currentAllowance >= amount, \"ERC20: transfer amount exceeds allowance\");\n        _approve(sender, _msgSender(), currentAllowance - amount);\n\n        return true;\n    }\n    function increaseAllowance(address spender, uint256 addedValue) public virtual returns (bool) {\n        _approve(_msgSender(), spender, _allowances[_msgSender()][spender] + addedValue);\n        return true;\n    }\n    function decreaseAllowance(address spender, uint256 subtractedValue) public virtual returns (bool) {\n        uint256 currentAllowance = _allowances[_msgSender()][spender];\n        require(currentAllowance >= subtractedValue, \"ERC20: decreased allowance below zero\");\n        _approve(_msgSender(), spender, currentAllowance - subtractedValue);\n\n        return true;\n    }\n    function _approve(address owner, address spender, uint256 amount) internal virtual {\n        require(owner != address(0), \"ERC20: approve from the zero address\");\n        require(spender != address(0), \"ERC20: approve to the zero address\");\n\n        _allowances[owner][spender] = amount;\n        emit Approval(owner, spender, amount);\n    }\n\n\n    function _transfer(address sender, address recipient, uint256 amount) internal virtual {\n        require(sender != address(0), \"ERC20: transfer from the zero address\");\n\n        uint256 senderBalance = _balances[sender]; // gas SLOAD: 200 vs MLOAD: 3 ...\n        require(senderBalance >= amount, \"ERC20: transfer amount exceeds balance\");\n\n        uint256 sell_tax;\n        uint256 dev_tax;\n        uint256 balancer_amount;\n\n        if(excluded[sender] == false && excluded[recipient] == false && circuit_breaker == false) {\n\n        // ----  Sell tax  ----\n          (uint112 _reserve0, uint112 _reserve1,) = pair.getReserves(); // returns reserve0, reserve1, timestamp last tx\n          if(address(this) != pair.token0()) { // 0 := iBNB\n            (_reserve0, _reserve1) = (_reserve1, _reserve0);\n          }\n          sell_tax = sellingTax(sender, amount, _reserve0); //will update the balancer ledger too\n\n        // ------ dev tax 0.1% -------\n          dev_tax = amount.div(1000);\n\n        // ------ balancer tax 9.9% ------\n          balancer_amount = amount.mul(99).div(1000);\n          balancer(balancer_amount, _reserve0);\n\n          //@dev every extra token are collected into address(this), it's the balancer job to then split them\n          //between pool and reward, using the dedicated struct\n          _balances[address(this)] += sell_tax.add(balancer_amount);\n          _balances[devWallet] += dev_tax;\n        }\n        //else, by default:\n        //  sell_tax = 0;\n        //  dev_tax = 0;\n        //  balancer_amount = 0;\n\n\n        //reward reinit\n        _last_tx[recipient].last_timestamp = block.timestamp;\n\n        _balances[sender] = senderBalance.sub(amount);\n        _balances[recipient] += amount.sub(sell_tax).sub(dev_tax).sub(balancer_amount);\n\n        emit Transfer(sender, recipient, amount);\n        emit Transfer(sender, address(this), sell_tax);\n        emit Transfer(sender, address(this), balancer_amount);\n        emit Transfer(sender, devWallet, dev_tax);\n    }\n\n    //@dev take a selling tax if transfer from a non-excluded address or from the pair contract exceed\n    //the thresholds defined in selling_taxes_thresholds on 24h floating window\n    function sellingTax(address sender, uint256 amount, uint256 pool_balance) internal returns(uint256 sell_tax) {\n        uint16[5] memory _tax_tranches = selling_taxes_tranches;\n        past_tx memory sender_last_tx = _last_tx[sender];\n\n        //>1 day since last tx\n        if(block.timestamp > sender_last_tx.last_timestamp + 1 days) {\n          _last_tx[sender].cum_transfer = 0; // a.k.a The Virgin\n        }\n\n        uint256 new_cum_sum = amount.add(_last_tx[sender].cum_transfer);\n\n        if(new_cum_sum > pool_balance.mul(_tax_tranches[4]).div(10**4)) {\n          revert(\"Selling tax: above max amount\");\n        }\n        else if(new_cum_sum > pool_balance.mul(_tax_tranches[3]).div(10**4)) {\n          sell_tax = amount.mul(selling_taxes_rates[3]).div(100);\n        }\n        else if(new_cum_sum > pool_balance.mul(_tax_tranches[2]).div(10**4)) {\n          sell_tax = amount.mul(selling_taxes_rates[2]).div(100);\n        }\n        else if(new_cum_sum > pool_balance.mul(_tax_tranches[1]).div(10**4)) {\n          sell_tax = amount.mul(selling_taxes_rates[1]).div(100);\n        }\n        else if(new_cum_sum > pool_balance.mul(_tax_tranches[0]).div(10**4)) {\n          sell_tax = amount.mul(selling_taxes_rates[0]).div(100);\n        }\n        else { sell_tax = 0; }\n\n        _last_tx[sender].cum_transfer = sender_last_tx.cum_transfer.add(amount);\n\n        balancer_balances.reward_pool += sell_tax; //sell tax is for reward:)\n\n        return sell_tax;\n    }\n\n    //@dev take the 9.9% taxes as input, split it between reward and liq subpools\n    //    according to pool condition -> circ-pool/circ supply closer to one implies\n    //    priority to the reward pool\n    function balancer(uint256 amount, uint256 pool_balance) internal {\n\n        address DEAD = address(0x000000000000000000000000000000000000dEaD);\n        uint256 unwght_circ_supply = totalSupply().sub(_balances[DEAD]);\n\n        // we aim at a set % of liquidity pool (defaut 10% of circ supply), 100% in pancake swap is NOT a good news\n        uint256 circ_supply = (pool_balance < unwght_circ_supply * pcs_pool_to_circ_ratio / 100) ? unwght_circ_supply * pcs_pool_to_circ_ratio / 100 : pool_balance;\n\n\n\n        balancer_balances.liquidity_pool += (amount.mul(circ_supply.sub(pool_balance)).mul(10**9).div(circ_supply)).div(10**9);\n        balancer_balances.reward_pool += (amount.mul(circ_supply.sub((circ_supply.sub(pool_balance)))).mul(10**9).div(circ_supply)).div(10**9);\n\n        prop_balances memory _balancer_balances = balancer_balances;\n\n        if(_balancer_balances.liquidity_pool >= swap_for_liquidity_threshold) {\n            uint256 token_out = addLiquidity(_balancer_balances.liquidity_pool);\n            balancer_balances.liquidity_pool -= token_out; //not balanceOf, in case addLiq revert\n        }\n\n        if(_balancer_balances.reward_pool >= swap_for_reward_threshold) {\n            uint256 token_out = swapForBNB(_balancer_balances.reward_pool, address(this));\n            balancer_balances.reward_pool -= token_out;\n        }\n\n        emit BalancerPools(_balancer_balances.liquidity_pool, _balancer_balances.reward_pool);\n    }\n\n    //@dev when triggered, will swap and provide liquidity\n    //    BNBfromSwap being the difference between and after the swap, slippage\n    //    will result in extra-BNB for the reward pool (free money for the guys:)\n    function addLiquidity(uint256 token_amount) internal returns (uint256) {\n      uint256 BNBfromReward = address(this).balance;\n\n      address[] memory route = new address[](2);\n      route[0] = address(this);\n      route[1] = router.WETH();\n\n      if(allowance(address(this), address(router)) < token_amount) {\n        _allowances[address(this)][address(router)] = ~uint256(0);\n        emit Approval(address(this), address(router), ~uint256(0));\n      }\n\n      try router.swapExactTokensForETHSupportingFeeOnTransferTokens(token_amount.div(2), 0, route, address(this), block.timestamp) {\n        uint256 BNBfromSwap = address(this).balance.sub(BNBfromReward);\n        router.addLiquidityETH{value: BNBfromSwap}(address(this), token_amount.div(2), 0, 0, LP_recipient, block.timestamp); //will not be catched\n        emit AddLiq(\"addLiq: ok\");\n        return token_amount;\n      }\n      catch {\n        emit AddLiq(\"addLiq: fail\");\n        return 0;\n      }\n    }\n\n    //@dev individual reward is growing linearly througout 24h, and is the portion of the reward pool\n    //     weighted by the \"free\" (ie non-pool non-death) supply owned.\n    //     reward = (balance/free supply) * [(now - lastClaim) / 1d] * BNB_balance\n    //     If an extra-buy occurs in the last 24h, reset 24h timer (in sell tax)\n    //     (frontend will automatize claim then buy)\n    //     returns net reward and tax on the reward\n    function computeReward() public view returns(uint256, uint256 tax_to_pay) {\n\n      past_tx memory sender_last_tx = _last_tx[msg.sender];\n\n      if(sender_last_tx.last_claim + reward_rate > block.timestamp) { // 1 claim every 24h max\n        return (0, 0);//too soon (that's what she said)\n      }\n\n      address DEAD = address(0x000000000000000000000000000000000000dEaD);\n\n      uint256 claimable_supply = totalSupply().sub(_balances[DEAD]).sub(_balances[address(pair)]);\n      uint256 time_factor = (block.timestamp - sender_last_tx.last_timestamp) % reward_rate;\n\n      uint256 _nom = _balances[msg.sender].mul(time_factor).mul(address(this).balance);\n      uint256 _denom = claimable_supply.mul(1 days);\n      uint256 gross_reward_in_BNB = _nom.div(_denom);\n      tax_to_pay = taxOnClaim(gross_reward_in_BNB);\n      return (gross_reward_in_BNB.sub(tax_to_pay), tax_to_pay);\n    }\n\n    //@dev Compute the tax on claimed reward - labelled in BNB (as per team agreement)\n    function taxOnClaim(uint256 amount) internal view returns(uint256 tax){\n\n      if(amount > 2 ether) { return amount.mul(claiming_taxes_rates[4]).div(100); } //GIVE US FINNEY'S BACK\n      else if(amount > 1.50 ether) { return amount.mul(claiming_taxes_rates[3]).div(100); }\n      else if(amount > 1 ether) { return amount.mul(claiming_taxes_rates[2]).div(100); }\n      else if(amount > 0.5 ether) { return amount.mul(claiming_taxes_rates[1]).div(100); }\n      else if(amount > 0.25 ether) { return amount.mul(claiming_taxes_rates[0]).div(100); }\n      else { return 0; }\n\n    }\n\n    //@dev frontend integration\n    function endOfPeriod() external view returns (uint256) {\n      return _last_tx[msg.sender].last_claim + reward_rate;\n    }\n\n    //@dev computeReward check if last claim is less than 1d ago\n    function claimReward() external {\n      (uint256 claimable, uint256 tax) = computeReward();\n      require(claimable > 0, \"Claim: 0\");\n      _last_tx[msg.sender].last_claim = block.timestamp;\n      emit Transfer(msg.sender, address(this), tax);\n      safeTransferETH(msg.sender, claimable);\n    }\n\n    function getQuoteInBNB(uint256 nb_token) internal view returns (uint256) {\n      (uint112 _reserve0, uint112 _reserve1,) = pair.getReserves(); // returns reserve0, reserve1, timestamp last tx\n      if(address(this) != pair.token0()) { // 0 <- iBNB\n        (_reserve0, _reserve1) = (_reserve1, _reserve0);\n      }\n      return router.getAmountOut(nb_token, _reserve0, _reserve1);\n    }\n\n    function swapForBNB(uint256 token_amount, address receiver) internal returns (uint256) {\n      address[] memory route = new address[](2);\n      route[0] = address(this);\n      route[1] = router.WETH();\n\n      if(allowance(address(this), address(router)) < token_amount) {\n        _allowances[address(this)][address(router)] = ~uint256(0);\n        emit Approval(address(this), address(router), ~uint256(0));\n      }\n\n      try router.swapExactTokensForETHSupportingFeeOnTransferTokens(token_amount, 0, route, receiver, block.timestamp) {\n        emit SwapForBNB(\"Swap success\");\n        return token_amount;\n      }\n      catch Error(string memory _err) {\n        emit SwapForBNB(_err);\n        return 0;\n      }\n    }\n\n    //@dev taken from uniswapV2 TransferHelper lib\n    function safeTransferETH(address to, uint value) internal {\n        (bool success,) = to.call{value:value}(new bytes(0));\n        require(success, 'TransferHelper: ETH_TRANSFER_FAILED');\n    }\n\n    function excludeFromTaxes(address adr) external onlyOwner {\n      require(!excluded[adr], \"already excluded\");\n      excluded[adr] = true;\n    }\n\n    function includeInTaxes(address adr) external onlyOwner {\n      require(excluded[adr], \"already taxed\");\n      excluded[adr] = false;\n    }\n\n    function isExcluded(address adr) external view returns (bool){\n      return excluded[adr];\n    }\n\n    function resetBalancer() external onlyOwner {\n      uint256 _contract_balance = _balances[address(this)];\n      balancer_balances.reward_pool = _contract_balance.div(2);\n      balancer_balances.liquidity_pool = _contract_balance.div(2);\n      emit balancerReset(balancer_balances.reward_pool, balancer_balances.liquidity_pool);\n    }\n\n    //@dev will bypass all the taxes and act as erc20.\n    //     pools & balancer balances will remain untouched\n    function setCircuitBreaker(bool status) external onlyOwner {\n      circuit_breaker = status;\n    }\n\n    //@dev will point to the LP timelock / default = burn\n    function setLPRecipient(address _LP_recipient) external onlyOwner {\n      LP_recipient = _LP_recipient;\n    }\n\n    function setDevWallet(address _devWallet) external onlyOwner {\n      devWallet = _devWallet;\n    }\n\n    function setSwapFor_Liq_Threshold(uint128 threshold_in_token) external onlyOwner {\n      swap_for_liquidity_threshold = threshold_in_token * 10**_decimals;\n    }\n\n    function setSwapFor_Reward_Threshold(uint128 threshold_in_token) external onlyOwner {\n      swap_for_reward_threshold = threshold_in_token * 10**_decimals;\n    }\n\n    function setSellingTaxesTranches(uint16[5] memory new_tranches) external onlyOwner {\n      selling_taxes_tranches = new_tranches;\n      emit TaxRatesChanged();\n    }\n\n    function setSellingTaxesrates(uint8[4] memory new_amounts) external onlyOwner {\n      selling_taxes_rates = new_amounts;\n      emit TaxRatesChanged();\n    }\n\n    function setRewardTaxesTranches(uint8[5] memory new_tranches) external onlyOwner {\n      claiming_taxes_rates = new_tranches;\n      emit RewardTaxChanged();\n    }\n\n    function setRewardRate(uint32 new_periodicity) external onlyOwner {\n      reward_rate = new_periodicity;\n    }\n\n    //@dev fallback in order to receive BNB from swapToBNB\n    receive () external payable {}\n}\n",
  "sourcePath": "/home/drgorilla/Documents/solidity/iBNB-presale/contracts/iBNB.sol",
  "compiler": {
    "name": "solc",
    "version": "0.8.0+commit.c7dfd78e.Emscripten.clang"
  },
  "schemaVersion": "3.4.0",
  "updatedAt": "2021-06-24T19:12:19.898Z",
  "devdoc": {
    "details": "iBNB Every tx is subject to: - a sell tax, at fixed tranches (see selling_taxes_tranches and selling_taxes_rates - above the last threshold, th tx revert). the sell tax is applicable on tx to the uni/pancake pool. This tax goes to the reward pool. - 0.1% flat to the team wallet - 9.9% to the balancer (which, in turn, fill 2 internal \"pools\" via the pro_balances struct: reward and liquidity). - a \"check and trigger\" on both liquidity and reward internal pools -> if they have more token than the threshold, swap is triggered   and BNB are stored in the contract (for the reward subpool) or liquidity is added to the uni pool Reward is claimable daily, and is based on the % of the circulating supply (defined as total_supply-dead address balance-pool balance)  owned by the claimer; on the time since the last transfer into owner's wallet module 24; on the BNB balance of the contract :                  reward in BNB = (token owned / circulating supply) * [(current time - last transfer in) % 24] / 1 day * BNB contract balance",
    "kind": "dev",
    "methods": {
      "owner()": {
        "details": "Returns the address of the current owner."
      },
      "renounceOwnership()": {
        "details": "Leaves the contract without owner. It will not be possible to call `onlyOwner` functions anymore. Can only be called by the current owner. NOTE: Renouncing ownership will leave the contract without an owner, thereby removing any functionality that is only available to the owner."
      },
      "transferOwnership(address)": {
        "details": "Transfers ownership of the contract to a new account (`newOwner`). Can only be called by the current owner."
      }
    },
    "version": 1
  },
  "userdoc": {
    "kind": "user",
    "methods": {},
    "version": 1
  }
}