{
  "contractName": "iBNB_airdrop",
  "abi": [
    {
      "inputs": [
        {
          "internalType": "address",
          "name": "_contract",
          "type": "address"
        }
      ],
      "stateMutability": "nonpayable",
      "type": "constructor"
    },
    {
      "anonymous": false,
      "inputs": [
        {
          "indexed": true,
          "internalType": "address",
          "name": "previousOwner",
          "type": "address"
        },
        {
          "indexed": true,
          "internalType": "address",
          "name": "newOwner",
          "type": "address"
        }
      ],
      "name": "OwnershipTransferred",
      "type": "event"
    },
    {
      "inputs": [],
      "name": "owner",
      "outputs": [
        {
          "internalType": "address",
          "name": "",
          "type": "address"
        }
      ],
      "stateMutability": "view",
      "type": "function",
      "constant": true
    },
    {
      "inputs": [],
      "name": "renounceOwnership",
      "outputs": [],
      "stateMutability": "nonpayable",
      "type": "function"
    },
    {
      "inputs": [
        {
          "internalType": "address",
          "name": "newOwner",
          "type": "address"
        }
      ],
      "name": "transferOwnership",
      "outputs": [],
      "stateMutability": "nonpayable",
      "type": "function"
    },
    {
      "inputs": [
        {
          "internalType": "address[]",
          "name": "_receivers",
          "type": "address[]"
        },
        {
          "internalType": "uint256[]",
          "name": "_balances",
          "type": "uint256[]"
        }
      ],
      "name": "send_airdrop",
      "outputs": [],
      "stateMutability": "nonpayable",
      "type": "function"
    }
  ],
  "bytecode": "0x608060405234801561001057600080fd5b5060405161067438038061067483398101604081905261002f916100ac565b60006100396100a8565b600080546001600160a01b0319166001600160a01b0383169081178255604051929350917f8be0079c531659141344cd1fd0a4f28419497f9722a3daafe3b4186f6b6457e0908290a350600180546001600160a01b0319166001600160a01b03929092169190911790556100da565b3390565b6000602082840312156100bd578081fd5b81516001600160a01b03811681146100d3578182fd5b9392505050565b61058b806100e96000396000f3fe608060405234801561001057600080fd5b506004361061004c5760003560e01c8063715018a6146100515780638da5cb5b1461005b578063932867d814610079578063f2fde38b1461008c575b600080fd5b61005961009f565b005b610063610131565b6040516100709190610452565b60405180910390f35b6100596100873660046103c9565b610140565b61005961009a36600461039b565b61028e565b6100a761034e565b6001600160a01b03166100b8610131565b6001600160a01b0316146100e75760405162461bcd60e51b81526004016100de906104d0565b60405180910390fd5b600080546040516001600160a01b03909116907f8be0079c531659141344cd1fd0a4f28419497f9722a3daafe3b4186f6b6457e0908390a3600080546001600160a01b0319169055565b6000546001600160a01b031690565b61014861034e565b6001600160a01b0316610159610131565b6001600160a01b03161461017f5760405162461bcd60e51b81526004016100de906104d0565b60005b8381101561028a576001546001600160a01b03166323b872dd338787858181106101bc57634e487b7160e01b600052603260045260246000fd5b90506020020160208101906101d1919061039b565b8686868181106101f157634e487b7160e01b600052603260045260246000fd5b90506020020135633b9aca006102079190610505565b6040518463ffffffff1660e01b815260040161022593929190610466565b602060405180830381600087803b15801561023f57600080fd5b505af1158015610253573d6000803e3d6000fd5b505050506040513d601f19601f820116820180604052508101906102779190610432565b508061028281610524565b915050610182565b5033ff5b61029661034e565b6001600160a01b03166102a7610131565b6001600160a01b0316146102cd5760405162461bcd60e51b81526004016100de906104d0565b6001600160a01b0381166102f35760405162461bcd60e51b81526004016100de9061048a565b600080546040516001600160a01b03808516939216917f8be0079c531659141344cd1fd0a4f28419497f9722a3daafe3b4186f6b6457e091a3600080546001600160a01b0319166001600160a01b0392909216919091179055565b3390565b60008083601f840112610363578182fd5b50813567ffffffffffffffff81111561037a578182fd5b602083019150836020808302850101111561039457600080fd5b9250929050565b6000602082840312156103ac578081fd5b81356001600160a01b03811681146103c2578182fd5b9392505050565b600080600080604085870312156103de578283fd5b843567ffffffffffffffff808211156103f5578485fd5b61040188838901610352565b90965094506020870135915080821115610419578384fd5b5061042687828801610352565b95989497509550505050565b600060208284031215610443578081fd5b815180151581146103c2578182fd5b6001600160a01b0391909116815260200190565b6001600160a01b039384168152919092166020820152604081019190915260600190565b60208082526026908201527f4f776e61626c653a206e6577206f776e657220697320746865207a65726f206160408201526564647265737360d01b606082015260800190565b6020808252818101527f4f776e61626c653a2063616c6c6572206973206e6f7420746865206f776e6572604082015260600190565b600081600019048311821515161561051f5761051f61053f565b500290565b60006000198214156105385761053861053f565b5060010190565b634e487b7160e01b600052601160045260246000fdfea26469706673582212205b04c666bb36cacb0a2f443ef8b7cdce4bc9b077e837b867d32ab771fb436f9264736f6c63430008000033",
  "immutableReferences": {},
  "source": "// SPDX-License-Identifier: GPL - @DrGorilla_md (Tg/Twtr)\n\npragma solidity 0.8.0;\n\nimport \"@openzeppelin/contracts/token/ERC20/IERC20.sol\";\nimport \"@openzeppelin/contracts/access/Ownable.sol\";\n\n\ncontract iBNB_airdrop is Ownable {\n\n    IERC20 iBNB_contract;\n    uint256 init_balance;\n\n    constructor (address _contract) {\n        iBNB_contract = IERC20(_contract);\n    }\n\n    function send_airdrop(address[] calldata _receivers, uint256[] calldata _balances) external onlyOwner {\n        for(uint256 i = 0; i<_receivers.length; i++) {\n            iBNB_contract.transferFrom(msg.sender, _receivers[i], _balances[i]*10**9); //quick and dirty dec fix\n        }\n        selfdestruct(payable(msg.sender)); //let's enjoy while it last\n    }\n\n}\n",
  "sourcePath": "/home/drgorilla/Documents/solidity/iBNB/contracts/iBNB_airdrops.sol",
  "compiler": {
    "name": "solc",
    "version": "0.8.0+commit.c7dfd78e.Emscripten.clang"
  },
  "schemaVersion": "3.4.0",
  "updatedAt": "2021-06-29T19:24:19.194Z",
  "networkType": "ethereum",
  "devdoc": {
    "kind": "dev",
    "methods": {
      "owner()": {
        "details": "Returns the address of the current owner."
      },
      "renounceOwnership()": {
        "details": "Leaves the contract without owner. It will not be possible to call `onlyOwner` functions anymore. Can only be called by the current owner. NOTE: Renouncing ownership will leave the contract without an owner, thereby removing any functionality that is only available to the owner."
      },
      "transferOwnership(address)": {
        "details": "Transfers ownership of the contract to a new account (`newOwner`). Can only be called by the current owner."
      }
    },
    "version": 1
  },
  "userdoc": {
    "kind": "user",
    "methods": {},
    "version": 1
  }
}