{
  "contractName": "iBNB_presale",
  "abi": [
    {
      "inputs": [
        {
          "internalType": "address",
          "name": "_router",
          "type": "address"
        },
        {
          "internalType": "address",
          "name": "_ibnb_address",
          "type": "address"
        }
      ],
      "stateMutability": "nonpayable",
      "type": "constructor"
    },
    {
      "anonymous": false,
      "inputs": [
        {
          "indexed": false,
          "internalType": "address",
          "name": "",
          "type": "address"
        },
        {
          "indexed": false,
          "internalType": "uint256",
          "name": "",
          "type": "uint256"
        },
        {
          "indexed": false,
          "internalType": "uint256",
          "name": "",
          "type": "uint256"
        }
      ],
      "name": "Buy",
      "type": "event"
    },
    {
      "anonymous": false,
      "inputs": [
        {
          "indexed": false,
          "internalType": "address",
          "name": "",
          "type": "address"
        },
        {
          "indexed": false,
          "internalType": "uint256",
          "name": "",
          "type": "uint256"
        },
        {
          "indexed": false,
          "internalType": "uint256",
          "name": "",
          "type": "uint256"
        }
      ],
      "name": "Claimable",
      "type": "event"
    },
    {
      "anonymous": false,
      "inputs": [
        {
          "indexed": false,
          "internalType": "uint256",
          "name": "",
          "type": "uint256"
        },
        {
          "indexed": false,
          "internalType": "uint256",
          "name": "",
          "type": "uint256"
        }
      ],
      "name": "LiquidityTransferred",
      "type": "event"
    },
    {
      "anonymous": false,
      "inputs": [
        {
          "indexed": true,
          "internalType": "address",
          "name": "previousOwner",
          "type": "address"
        },
        {
          "indexed": true,
          "internalType": "address",
          "name": "newOwner",
          "type": "address"
        }
      ],
      "name": "OwnershipTransferred",
      "type": "event"
    },
    {
      "inputs": [],
      "name": "iBNB_token",
      "outputs": [
        {
          "internalType": "contract ERC20",
          "name": "",
          "type": "address"
        }
      ],
      "stateMutability": "view",
      "type": "function"
    },
    {
      "inputs": [],
      "name": "owner",
      "outputs": [
        {
          "internalType": "address",
          "name": "",
          "type": "address"
        }
      ],
      "stateMutability": "view",
      "type": "function"
    },
    {
      "inputs": [],
      "name": "presale_token_per_BNB",
      "outputs": [
        {
          "internalType": "uint256",
          "name": "",
          "type": "uint256"
        }
      ],
      "stateMutability": "view",
      "type": "function"
    },
    {
      "inputs": [],
      "name": "public_token_per_BNB",
      "outputs": [
        {
          "internalType": "uint256",
          "name": "",
          "type": "uint256"
        }
      ],
      "stateMutability": "view",
      "type": "function"
    },
    {
      "inputs": [],
      "name": "renounceOwnership",
      "outputs": [],
      "stateMutability": "nonpayable",
      "type": "function"
    },
    {
      "inputs": [],
      "name": "sale_status",
      "outputs": [
        {
          "internalType": "enum iBNB_presale.status",
          "name": "",
          "type": "uint8"
        }
      ],
      "stateMutability": "view",
      "type": "function"
    },
    {
      "inputs": [
        {
          "internalType": "address",
          "name": "newOwner",
          "type": "address"
        }
      ],
      "name": "transferOwnership",
      "outputs": [],
      "stateMutability": "nonpayable",
      "type": "function"
    },
    {
      "inputs": [
        {
          "internalType": "address[50]",
          "name": "_adr",
          "type": "address[50]"
        }
      ],
      "name": "addBlockWhitelist",
      "outputs": [],
      "stateMutability": "nonpayable",
      "type": "function"
    },
    {
      "inputs": [
        {
          "internalType": "address",
          "name": "_adr",
          "type": "address"
        }
      ],
      "name": "addWhitelist",
      "outputs": [],
      "stateMutability": "nonpayable",
      "type": "function"
    },
    {
      "inputs": [],
      "name": "saleStatus",
      "outputs": [
        {
          "internalType": "uint256",
          "name": "",
          "type": "uint256"
        }
      ],
      "stateMutability": "view",
      "type": "function"
    },
    {
      "inputs": [],
      "name": "startSale",
      "outputs": [],
      "stateMutability": "nonpayable",
      "type": "function"
    },
    {
      "inputs": [],
      "name": "tokenLeftForPrivateSale",
      "outputs": [
        {
          "internalType": "uint256",
          "name": "",
          "type": "uint256"
        }
      ],
      "stateMutability": "view",
      "type": "function"
    },
    {
      "inputs": [],
      "name": "tokenLeftForWhitelistSale",
      "outputs": [
        {
          "internalType": "uint256",
          "name": "",
          "type": "uint256"
        }
      ],
      "stateMutability": "view",
      "type": "function"
    },
    {
      "inputs": [],
      "name": "buy",
      "outputs": [],
      "stateMutability": "payable",
      "type": "function"
    },
    {
      "inputs": [],
      "name": "allowanceLeftInBNB",
      "outputs": [
        {
          "internalType": "uint256",
          "name": "",
          "type": "uint256"
        }
      ],
      "stateMutability": "view",
      "type": "function"
    },
    {
      "inputs": [],
      "name": "amountBNBBought",
      "outputs": [
        {
          "internalType": "uint256",
          "name": "",
          "type": "uint256"
        }
      ],
      "stateMutability": "view",
      "type": "function"
    },
    {
      "inputs": [],
      "name": "claim",
      "outputs": [],
      "stateMutability": "nonpayable",
      "type": "function"
    },
    {
      "inputs": [
        {
          "internalType": "uint256",
          "name": "TokenPerBNB",
          "type": "uint256"
        },
        {
          "internalType": "uint256",
          "name": "min_amount_slippage_in_percents",
          "type": "uint256"
        }
      ],
      "name": "concludeAndAddLiquidity",
      "outputs": [],
      "stateMutability": "nonpayable",
      "type": "function"
    }
  ],
  "bytecode": "0x608060405264746a528800600455645d21dba0006005553480156200002357600080fd5b50604051620019763803806200197683398101604081905262000046916200025e565b60006200005262000219565b600080546001600160a01b0319166001600160a01b0383169081178255604051929350917f8be0079c531659141344cd1fd0a4f28419497f9722a3daafe3b4186f6b6457e0908290a350600c80546001600160a01b0319166001600160a01b038481169190911791829055604080516315ab88c960e31b815290516000939092169163ad5c464891600480820192602092909190829003018186803b158015620000fb57600080fd5b505afa15801562000110573d6000803e3d6000fd5b505050506040513d601f19601f820116820180604052508101906200013691906200023a565b6001600160a01b03161415620001695760405162461bcd60e51b81526004016200016090620002b8565b60405180910390fd5b600b80546001600160a01b0319166001600160a01b0383811691909117918290556040805163313ce56760e01b81529051929091169163313ce56791600480820192602092909190829003018186803b158015620001c657600080fd5b505afa158015620001db573d6000803e3d6000fd5b505050506040513d601f19601f8201168201806040525081019062000201919062000295565b60ff16600a5550506003805460ff19169055620002de565b3390565b80516001600160a01b03811681146200023557600080fd5b919050565b6000602082840312156200024c578081fd5b62000257826200021d565b9392505050565b6000806040838503121562000271578081fd5b6200027c836200021d565b91506200028c602084016200021d565b90509250929050565b600060208284031215620002a7578081fd5b815160ff8116811462000257578182fd5b6020808252600c908201526b2937baba32b91032b93937b960a11b604082015260600190565b61168880620002ee6000396000f3fe6080604052600436106101095760003560e01c806396b7a66b11610095578063ebc1ae5f11610064578063ebc1ae5f1461024f578063f2fde38b14610264578063f80f5dd514610284578063f9020e33146102a4578063fc64db44146102b957610109565b806396b7a66b14610208578063a6f2ae3a1461021d578063b4e67e4b14610225578063b66a0e5d1461023a57610109565b80634b8e1eb0116100dc5780634b8e1eb0146101855780634e71d92d146101a757806353e322d6146101bc578063715018a6146101d15780638da5cb5b146101e657610109565b80631aaf5f611461010e5780632c9d60ae146101395780632f428af01461014e57806338164c1e14610163575b600080fd5b34801561011a57600080fd5b506101236102d9565b604051610130919061142a565b60405180910390f35b34801561014557600080fd5b506101236102df565b34801561015a57600080fd5b50610123610398565b34801561016f57600080fd5b506101786103ab565b60405161013091906111e9565b34801561019157600080fd5b506101a56101a0366004611112565b6103b4565b005b3480156101b357600080fd5b506101a5610854565b3480156101c857600080fd5b5061012361099b565b3480156101dd57600080fd5b506101a56109a1565b3480156101f257600080fd5b506101fb610a2a565b6040516101309190611160565b34801561021457600080fd5b50610123610a39565b6101a5610a5b565b34801561023157600080fd5b50610123610bff565b34801561024657600080fd5b506101a5610c56565b34801561025b57600080fd5b506101fb610d6b565b34801561027057600080fd5b506101a561027f366004611034565b610d7a565b34801561029057600080fd5b506101a561029f366004611034565b610e3a565b3480156102b057600080fd5b50610123610ed6565b3480156102c557600080fd5b506101a56102d436600461104e565b610efe565b60045481565b600061039360095460405180606001604052806023815260200161160b60239139600754600b546040516370a0823160e01b815261038c92916001600160a01b0316906370a0823190610336903090600401611160565b60206040518083038186803b15801561034e57600080fd5b505afa158015610362573d6000803e3d6000fd5b505050506040513d601f19601f8201168201806040525081019061038691906110fa565b90610fb1565b9190610fc4565b905090565b3360009081526001602052604090205490565b60035460ff1681565b6103bc610ff0565b6001600160a01b03166103cd610a2a565b6001600160a01b0316146103fc5760405162461bcd60e51b81526004016103f39061133e565b60405180910390fd5b6003805460ff19166002179055600061041d47670de0b6b3a7640000610ff4565b905060006104b9600a54600a61043391906114bf565b600b546040516370a0823160e01b81526001600160a01b03909116906370a0823190610463903090600401611160565b60206040518083038186803b15801561047b57600080fd5b505afa15801561048f573d6000803e3d6000fd5b505050506040513d601f19601f820116820180604052508101906104b391906110fa565b90610ff4565b9050836104c68284610ff4565b106104dc576104d58483611000565b90506104e9565b6104e68185610ff4565b91505b600b54600c54600a80546001600160a01b039384169363095ea7b393169161051b91610514916114bf565b8590611000565b6040518363ffffffff1660e01b8152600401610538929190611174565b602060405180830381600087803b15801561055257600080fd5b505af1158015610566573d6000803e3d6000fd5b505050506040513d601f19601f8201168201806040525081019061058a91906110da565b50600c546001600160a01b031663f305d7196105ae84670de0b6b3a7640000611000565b600b54600a80546001600160a01b03909216916105d6916105cf91906114bf565b8690611000565b6105fe60646104b38a6105f8600a54600a6105f191906114bf565b8b90611000565b90611000565b61061960646104b38b6105f88c670de0b6b3a7640000611000565b610621610a2a565b426040518863ffffffff1660e01b8152600401610643969594939291906111ae565b6060604051808303818588803b15801561065c57600080fd5b505af1158015610670573d6000803e3d6000fd5b50505050506040513d601f19601f820116820180604052508101906106959190611133565b5050600b546040516370a0823160e01b81526001600160a01b0390911691506370a08231906106c8903090600401611160565b60206040518083038186803b1580156106e057600080fd5b505afa1580156106f4573d6000803e3d6000fd5b505050506040513d601f19601f8201168201806040525081019061071891906110fa565b1561081857600b546040516370a0823160e01b81526001600160a01b039091169063a9059cbb90339083906370a0823190610757903090600401611160565b60206040518083038186803b15801561076f57600080fd5b505afa158015610783573d6000803e3d6000fd5b505050506040513d601f19601f820116820180604052508101906107a791906110fa565b6040518363ffffffff1660e01b81526004016107c4929190611174565b602060405180830381600087803b1580156107de57600080fd5b505af11580156107f2573d6000803e3d6000fd5b505050506040513d601f19601f8201168201806040525081019061081691906110da565b505b7f736cbe388dddb03fbd423e0d7e9f7430899824650b88b6c7eca0f1669f25450c8282604051610849929190611433565b60405180910390a133ff5b600260035460ff16600281111561087b57634e487b7160e01b600052602160045260246000fd5b146108985760405162461bcd60e51b81526004016103f390611311565b336000908152600160205260409020546108c45760405162461bcd60e51b81526004016103f3906113d0565b336000908152600160205260408120546004546108ee91670de0b6b3a7640000916104b391611000565b33600081815260016020526040812055600b54600a80549394506001600160a01b039091169263a9059cbb929161092891610514916114bf565b6040518363ffffffff1660e01b8152600401610945929190611174565b602060405180830381600087803b15801561095f57600080fd5b505af1158015610973573d6000803e3d6000fd5b505050506040513d601f19601f8201168201806040525081019061099791906110da565b5050565b60055481565b6109a9610ff0565b6001600160a01b03166109ba610a2a565b6001600160a01b0316146109e05760405162461bcd60e51b81526004016103f39061133e565b600080546040516001600160a01b03909116907f8be0079c531659141344cd1fd0a4f28419497f9722a3daafe3b4186f6b6457e0908390a3600080546001600160a01b0319169055565b6000546001600160a01b031690565b3360009081526001602052604081205461039390671bc16d674ec800006115ac565b600160035460ff166002811115610a8257634e487b7160e01b600052602160045260246000fd5b14610a9f5760405162461bcd60e51b81526004016103f3906113fb565b6702c68af0bb140000341015610ac75760405162461bcd60e51b81526004016103f3906112e1565b33600090815260016020526040902054671bc16d674ec8000090610aeb903461100c565b1115610b095760405162461bcd60e51b81526004016103f3906113a0565b6000610b2c670de0b6b3a76400006104b36004543461100090919063ffffffff16565b9050610b366102df565b81111580610b6557503360009081526002602052604090205460ff168015610b655750610b61610bff565b8111155b610b815760405162461bcd60e51b81526004016103f3906112aa565b33600090815260016020526040902054610b9b903461100c565b33600081815260016020526040902091909155600a80547f0f41720e667ec1a6364dead7f748567a5b6c13205ac77b74ac7c05a10f017f6092913491610be59161051491906114bf565b604051610bf49392919061118d565b60405180910390a150565b600061039360095460405180606001604052806025815260200161162e60259139600854600b546040516370a0823160e01b815261038c92916001600160a01b0316906370a0823190610336903090600401611160565b600060035460ff166002811115610c7d57634e487b7160e01b600052602160045260246000fd5b14610c9a5760405162461bcd60e51b81526004016103f3906113fb565b610ca2610ff0565b6001600160a01b0316610cb3610a2a565b6001600160a01b031614610cd95760405162461bcd60e51b81526004016103f39061133e565b6003805460ff19166001179055600b546040516370a0823160e01b81526001600160a01b03909116906370a0823190610d16903090600401611160565b60206040518083038186803b158015610d2e57600080fd5b505afa158015610d42573d6000803e3d6000fd5b505050506040513d601f19601f82011682018060405250810190610d6691906110fa565b600655565b600b546001600160a01b031681565b610d82610ff0565b6001600160a01b0316610d93610a2a565b6001600160a01b031614610db95760405162461bcd60e51b81526004016103f39061133e565b6001600160a01b038116610ddf5760405162461bcd60e51b81526004016103f390611264565b600080546040516001600160a01b03808516939216917f8be0079c531659141344cd1fd0a4f28419497f9722a3daafe3b4186f6b6457e091a3600080546001600160a01b0319166001600160a01b0392909216919091179055565b610e42610ff0565b6001600160a01b0316610e53610a2a565b6001600160a01b031614610e795760405162461bcd60e51b81526004016103f39061133e565b6001600160a01b03811660009081526002602052604090205460ff1615610eb25760405162461bcd60e51b81526004016103f390611373565b6001600160a01b03166000908152600260205260409020805460ff19166001179055565b60035460009060ff16600281111561039357634e487b7160e01b600052602160045260246000fd5b610f06610ff0565b6001600160a01b0316610f17610a2a565b6001600160a01b031614610f3d5760405162461bcd60e51b81526004016103f39061133e565b60005b603281101561099757600160026000848460328110610f6f57634e487b7160e01b600052603260045260246000fd5b602090810291909101516001600160a01b03168252810191909152604001600020805460ff191691151591909117905580610fa9816115c3565b915050610f40565b6000610fbd82846115ac565b9392505050565b60008184841115610fe85760405162461bcd60e51b81526004016103f39190611211565b505050900390565b3390565b6000610fbd8284611459565b6000610fbd828461158d565b6000610fbd8284611441565b80356001600160a01b038116811461102f57600080fd5b919050565b600060208284031215611045578081fd5b610fbd82611018565b6000610640808385031215611061578182fd5b83601f84011261106f578182fd5b60405181810181811067ffffffffffffffff82111715611091576110916115f4565b60405280848381018710156110a4578485fd5b8493505b60328410156110cf576110ba81611018565b825260019390930192602091820191016110a8565b509095945050505050565b6000602082840312156110eb578081fd5b81518015158114610fbd578182fd5b60006020828403121561110b578081fd5b5051919050565b60008060408385031215611124578081fd5b50508035926020909101359150565b600080600060608486031215611147578081fd5b8351925060208401519150604084015190509250925092565b6001600160a01b0391909116815260200190565b6001600160a01b03929092168252602082015260400190565b6001600160a01b039390931683526020830191909152604082015260600190565b6001600160a01b039687168152602081019590955260408501939093526060840191909152909216608082015260a081019190915260c00190565b602081016003831061120b57634e487b7160e01b600052602160045260246000fd5b91905290565b6000602080835283518082850152825b8181101561123d57858101830151858201604001528201611221565b8181111561124e5783604083870101525b50601f01601f1916929092016040019392505050565b60208082526026908201527f4f776e61626c653a206e6577206f776e657220697320746865207a65726f206160408201526564647265737360d01b606082015260800190565b6020808252601b908201527f53616c653a204e6f7420656e6f75676820746f6b656e206c6566740000000000604082015260600190565b60208082526016908201527514d85b194e88155b99195c881b5a5b88185b5bdd5b9d60521b604082015260600190565b60208082526013908201527214d85b194e881b9bdd08195b991959081e595d606a1b604082015260600190565b6020808252818101527f4f776e61626c653a2063616c6c6572206973206e6f7420746865206f776e6572604082015260600190565b602080825260139082015272105b1c9958591e481dda1a5d195b1a5cdd1959606a1b604082015260600190565b60208082526016908201527514d85b194e8818589bdd99481b585e08185b5bdd5b9d60521b604082015260600190565b6020808252601190820152703020746f6b656e7320746f20636c61696d60781b604082015260600190565b60208082526015908201527414d85b194e88185b1c9958591e481cdd185c9d1959605a1b604082015260600190565b90815260200190565b918252602082015260400190565b60008219821115611454576114546115de565b500190565b60008261147457634e487b7160e01b81526012600452602481fd5b500490565b80825b600180861161148b57506114b6565b81870482111561149d5761149d6115de565b808616156114aa57918102915b9490941c93800261147c565b94509492505050565b6000610fbd60001984846000826114d857506001610fbd565b816114e557506000610fbd565b81600181146114fb576002811461150557611532565b6001915050610fbd565b60ff841115611516576115166115de565b6001841b91508482111561152c5761152c6115de565b50610fbd565b5060208310610133831016604e8410600b8410161715611565575081810a83811115611560576115606115de565b610fbd565b6115728484846001611479565b808604821115611584576115846115de565b02949350505050565b60008160001904831182151516156115a7576115a76115de565b500290565b6000828210156115be576115be6115de565b500390565b60006000198214156115d7576115d76115de565b5060010190565b634e487b7160e01b600052601160045260246000fd5b634e487b7160e01b600052604160045260246000fdfe507269766174652073616c653a204e6f206d6f726520746f6b656e20746f2073656c6c57686974656c6973742073616c653a204e6f206d6f726520746f6b656e20746f2073656c6ca2646970667358221220b9bb6feea592f57babab5d93766e136765798d5ee56859a0a13b9899b25f7f7664736f6c63430008000033",
  "immutableReferences": {},
  "source": "pragma solidity 0.8.0;\n// SPDX-License-Identifier: GPL - @DrGorilla_md (Tg/Twtr)\n\n/*\nSupply Breakdown Update:\n\nTotal Supply - 1 QT\n\nBurn - 300T\nTeam - 40T\nMarketing - 45T\nPrivate - 27T  \nPresale - 250T\nPublic - 338T\n\nPre sale/Launch:\n\nNB: Figures based on BNB @ $340\n\nHardcap - 500 BNB\nSoftcap - 300 BNB\n\nMax buy - 2 BNB\nMin buy - 0.2 BNB\n\nPresale - 500B per BNB\nPancake - 400B per BNB\n\n% to LP - 90%\n\nLP at hardcap - $153,000\nLP at softcap - $91,800\n\nSpare funds at hardcap - $15,300\nSpare funds at softcap - $10,200\n\nMC at pre sale - $476,000\nMC at public launch - $595,000\n\n**MC figures dependant on pre sale filling up and no more tokens burnt.\n*/\n\nimport \"@openzeppelin/contracts/token/ERC20/ERC20.sol\";\nimport \"@openzeppelin/contracts/utils/math/SafeMath.sol\";\nimport \"@openzeppelin/contracts/access/Ownable.sol\";\nimport \"@uniswap/v2-periphery/contracts/interfaces/IUniswapV2Router02.sol\";\n\ncontract iBNB_presale is Ownable {\n\nusing SafeMath for uint256;\n\n// -- variables --\n\n    mapping (address => uint256) amountBought;\n    mapping (address => bool) whiteListed;\n\n    enum status {\n      beforeSale,\n      ongoingSale,\n      postSale\n    }\n\n    status public sale_status;\n\n    uint256 public presale_token_per_BNB = 500000000000;  //pre-sale price (500b/1BNB)\n    uint256 public public_token_per_BNB = 400000000000; //public pancake listing (400b/1BNB)\n    uint256 private init_balance;\n    uint256 private whiteQuota;\n    uint256 private presaleQuota;\n    uint256 private liquidityQuota;\n\n    uint256 decimal;\n    ERC20 public iBNB_token;\n    IUniswapV2Router02 router;\n\n    event Buy(address, uint256, uint256);\n    event LiquidityTransferred(uint256, uint256);\n    event Claimable(address, uint256, uint256);\n\n    modifier beforeSale() {\n      require(sale_status == status.beforeSale, \"Sale: already started\");\n      _;\n    }\n\n    modifier ongoingSale() {\n      require(sale_status == status.ongoingSale, \"Sale: already started\");\n      _;\n    }\n\n    modifier postSale() {\n      require(sale_status == status.postSale, \"Sale: not ended yet\");\n      _;\n    }\n    \n\n// -- init --\n\n    //@dev set circuit_breaker to true for the duration of the sale\n    constructor(address _router, address _ibnb_address) public {\n        router = IUniswapV2Router02(_router);\n        require(router.WETH() != address(0), 'Router error');\n        iBNB_token = ERC20(_ibnb_address);\n        decimal = iBNB_token.decimals();\n        sale_status = status.beforeSale;\n    }\n\n// -- before sale --\n\n    //@dev retain whitelisting capacity during the sale (ie too much \"zombies\" not coming)\n    // allowance max is 2BNB, +10**18 to flag whitelisted accounts (ie non-whitelisted == 0)\n    // in claim() \n    function addBlockWhitelist(address[50] memory _adr) external onlyOwner {\n      for(uint256 i=0; i<50; i++) {\n        whiteListed[_adr[i]] = true;\n      }\n    }\n\n    function addWhitelist(address _adr) external onlyOwner {\n      require(whiteListed[_adr] == false, \"Already whitelisted\");\n      whiteListed[_adr] = true;\n    }\n    \n    function saleStatus() external view returns(uint256) {\n      return uint256(sale_status);\n    }\n\n// -- Presale launch --\n\n    function startSale() external beforeSale onlyOwner {\n      sale_status = status.ongoingSale;\n      init_balance = iBNB_token.balanceOf(address(this));\n    }\n\n// -- Presale flow --\n\n    //@dev contract starts with presale+public\n    //     will revert when < 338T token available\n    function tokenLeftForPrivateSale() public view returns (uint256) {\n      return iBNB_token.balanceOf(address(this)).sub(whiteQuota).sub(liquidityQuota, \"Private sale: No more token to sell\");\n    }\n\n    function tokenLeftForWhitelistSale() public view returns (uint256) {\n      return iBNB_token.balanceOf(address(this)).sub(presaleQuota).sub(liquidityQuota, \"Whitelist sale: No more token to sell\");\n    }\n\n\n    function buy() external payable ongoingSale {\n      require(msg.value >= 2 * 10**17, \"Sale: Under min amount\"); // <0.2 BNB\n      require(amountBought[msg.sender].add(msg.value) <= 2*10**18, \"Sale: above max amount\"); // >2bnb\n\n      uint256 amountToken = msg.value.mul(presale_token_per_BNB).div(10**18);\n\n\n      require(amountToken <= tokenLeftForPrivateSale() || (whiteListed[msg.sender] && amountToken <= tokenLeftForWhitelistSale()), \"Sale: Not enough token left\");\n\n      amountBought[msg.sender] = amountBought[msg.sender].add(msg.value);\n      emit Claimable(msg.sender, msg.value, amountToken.mul(10**decimal));\n    }\n\n    function allowanceLeftInBNB() external view returns (uint256) {\n      return 2*10**18 - amountBought[msg.sender];\n    }\n    \n    function amountBNBBought() external view returns (uint256) {\n      return amountBought[msg.sender];\n    }\n\n// -- post sale --\n\n    function claim() external postSale {\n      require(amountBought[msg.sender] > 0, \"0 tokens to claim\");\n      uint256 amountToken = presale_token_per_BNB.mul(amountBought[msg.sender]).div(10**18);\n      amountBought[msg.sender] = 0;\n      iBNB_token.transfer(msg.sender, amountToken.mul(10**decimal));\n    }\n\n    //@dev convert BNB received and token left in pool liquidity. LP send to owner.\n    //     Uni Router handles both scenario : existing and non-existing pair\n    //     /!\\ will revert if < 1BNB in contract\n    //@param TokenPerBNB inital number of token for 1 BNB in the pool\n    //@param min_amount_slippage_in_percents min amount for adding liquidity (see uniswap doc)\n    //       in case of preexisting pool, if volatiltity++, set to 1% -> max slippage\n    function concludeAndAddLiquidity(uint256 TokenPerBNB, uint256 min_amount_slippage_in_percents) external onlyOwner {\n\n      sale_status = status.postSale;\n\n      uint256 balance_BNB = address(this).balance.div(10**18);\n      uint256 balance_token = iBNB_token.balanceOf(address(this)).div(10**decimal);\n\n      if(balance_token.div(balance_BNB) >= TokenPerBNB) { // too much token for BNB\n         balance_token = TokenPerBNB.mul(balance_BNB);\n       }\n       else { // too much BNB for token left\n         balance_BNB = balance_token.div(TokenPerBNB);\n       }\n\n      iBNB_token.approve(address(router), balance_token.mul(10**decimal));\n      router.addLiquidityETH{value: balance_BNB.mul(10**18)}(\n          address(iBNB_token),\n          balance_token.mul(10**decimal),\n          balance_token.mul(10**decimal).mul(min_amount_slippage_in_percents).div(100),  //slippage is evitable...\n          balance_BNB.mul(10**18).mul(min_amount_slippage_in_percents).div(100),\n          owner(),\n          block.timestamp\n      );\n\n      //transfer the non-used tokens\n      if(iBNB_token.balanceOf(address(this)) != 0) {\n        iBNB_token.transfer(msg.sender, iBNB_token.balanceOf(address(this)));\n      }\n\n      emit LiquidityTransferred(balance_BNB, balance_token);\n      //retrieving BNB left (hopefully 0) + gas optimisation\n      selfdestruct(payable(msg.sender));\n  }\n\n}\n",
  "sourcePath": "/home/drgorilla/Documents/solidity/iBNB-presale/contracts/iBNB_presale.sol",
  "compiler": {
    "name": "solc",
    "version": "0.8.0+commit.c7dfd78e.Emscripten.clang"
  },
  "schemaVersion": "3.4.0",
  "updatedAt": "2021-06-24T19:19:37.635Z",
  "devdoc": {
    "kind": "dev",
    "methods": {
      "owner()": {
        "details": "Returns the address of the current owner."
      },
      "renounceOwnership()": {
        "details": "Leaves the contract without owner. It will not be possible to call `onlyOwner` functions anymore. Can only be called by the current owner. NOTE: Renouncing ownership will leave the contract without an owner, thereby removing any functionality that is only available to the owner."
      },
      "transferOwnership(address)": {
        "details": "Transfers ownership of the contract to a new account (`newOwner`). Can only be called by the current owner."
      }
    },
    "version": 1
  },
  "userdoc": {
    "kind": "user",
    "methods": {},
    "version": 1
  }
}